{
  "address": "0x663f54111DcFC7DeE45a0D70E3bdf7CA96BC0CB7",
  "abi": [
    {
      "inputs": [
        {
          "internalType": "address",
          "name": "_nftPositionManager",
          "type": "address"
        }
      ],
      "stateMutability": "nonpayable",
      "type": "constructor"
    },
    {
      "inputs": [
        {
          "internalType": "address",
          "name": "spender",
          "type": "address"
        },
        {
          "internalType": "uint256",
          "name": "allowance",
          "type": "uint256"
        },
        {
          "internalType": "uint256",
          "name": "needed",
          "type": "uint256"
        }
      ],
      "name": "ERC20InsufficientAllowance",
      "type": "error"
    },
    {
      "inputs": [
        {
          "internalType": "address",
          "name": "sender",
          "type": "address"
        },
        {
          "internalType": "uint256",
          "name": "balance",
          "type": "uint256"
        },
        {
          "internalType": "uint256",
          "name": "needed",
          "type": "uint256"
        }
      ],
      "name": "ERC20InsufficientBalance",
      "type": "error"
    },
    {
      "inputs": [
        {
          "internalType": "address",
          "name": "approver",
          "type": "address"
        }
      ],
      "name": "ERC20InvalidApprover",
      "type": "error"
    },
    {
      "inputs": [
        {
          "internalType": "address",
          "name": "receiver",
          "type": "address"
        }
      ],
      "name": "ERC20InvalidReceiver",
      "type": "error"
    },
    {
      "inputs": [
        {
          "internalType": "address",
          "name": "sender",
          "type": "address"
        }
      ],
      "name": "ERC20InvalidSender",
      "type": "error"
    },
    {
      "inputs": [
        {
          "internalType": "address",
          "name": "spender",
          "type": "address"
        }
      ],
      "name": "ERC20InvalidSpender",
      "type": "error"
    },
    {
      "inputs": [],
      "name": "InvalidInitialization",
      "type": "error"
    },
    {
      "inputs": [],
      "name": "InvalidTick",
      "type": "error"
    },
    {
      "inputs": [],
      "name": "NotInitializing",
      "type": "error"
    },
    {
      "inputs": [],
      "name": "ReentrancyGuardReentrantCall",
      "type": "error"
    },
    {
      "inputs": [
        {
          "internalType": "address",
          "name": "token",
          "type": "address"
        }
      ],
      "name": "SafeERC20FailedOperation",
      "type": "error"
    },
    {
      "anonymous": false,
      "inputs": [
        {
          "indexed": true,
          "internalType": "address",
          "name": "owner",
          "type": "address"
        },
        {
          "indexed": true,
          "internalType": "address",
          "name": "spender",
          "type": "address"
        },
        {
          "indexed": false,
          "internalType": "uint256",
          "name": "value",
          "type": "uint256"
        }
      ],
      "name": "Approval",
      "type": "event"
    },
    {
      "anonymous": false,
      "inputs": [
        {
          "indexed": false,
          "internalType": "address",
          "name": "canceler",
          "type": "address"
        },
        {
          "indexed": false,
          "internalType": "string",
          "name": "reason",
          "type": "string"
        }
      ],
      "name": "Canceled",
      "type": "event"
    },
    {
      "anonymous": false,
      "inputs": [
        {
          "indexed": false,
          "internalType": "string",
          "name": "newCID",
          "type": "string"
        }
      ],
      "name": "InfoCIDChanged",
      "type": "event"
    },
    {
      "anonymous": false,
      "inputs": [
        {
          "indexed": false,
          "internalType": "uint64",
          "name": "version",
          "type": "uint64"
        }
      ],
      "name": "Initialized",
      "type": "event"
    },
    {
      "anonymous": false,
      "inputs": [
        {
          "indexed": false,
          "internalType": "uint256",
          "name": "tokenId",
          "type": "uint256"
        },
        {
          "indexed": false,
          "internalType": "uint128",
          "name": "liquidity",
          "type": "uint128"
        },
        {
          "indexed": false,
          "internalType": "uint256",
          "name": "amount0",
          "type": "uint256"
        },
        {
          "indexed": false,
          "internalType": "uint256",
          "name": "amount1",
          "type": "uint256"
        }
      ],
      "name": "LiquidityCreated",
      "type": "event"
    },
    {
      "anonymous": false,
      "inputs": [],
      "name": "LiquidityUnlocked",
      "type": "event"
    },
    {
      "anonymous": false,
      "inputs": [
        {
          "indexed": false,
          "internalType": "uint256",
          "name": "tokenAmount",
          "type": "uint256"
        },
        {
          "indexed": false,
          "internalType": "uint256",
          "name": "quoteTokenAmount",
          "type": "uint256"
        }
      ],
      "name": "OwnerClaimed",
      "type": "event"
    },
    {
      "anonymous": false,
      "inputs": [
        {
          "indexed": false,
          "internalType": "uint256",
          "name": "tokenAmount",
          "type": "uint256"
        }
      ],
      "name": "OwnerRefunded",
      "type": "event"
    },
    {
      "anonymous": false,
      "inputs": [
        {
          "indexed": false,
          "internalType": "address",
          "name": "account",
          "type": "address"
        },
        {
          "indexed": false,
          "internalType": "uint256",
          "name": "quoteTokenAmount",
          "type": "uint256"
        },
        {
          "indexed": false,
          "internalType": "bytes",
          "name": "disclaimerSignature",
          "type": "bytes"
        }
      ],
      "name": "TokenBought",
      "type": "event"
    },
    {
      "anonymous": false,
      "inputs": [
        {
          "indexed": true,
          "internalType": "address",
          "name": "from",
          "type": "address"
        },
        {
          "indexed": true,
          "internalType": "address",
          "name": "to",
          "type": "address"
        },
        {
          "indexed": false,
          "internalType": "uint256",
          "name": "value",
          "type": "uint256"
        }
      ],
      "name": "Transfer",
      "type": "event"
    },
    {
      "anonymous": false,
      "inputs": [
        {
          "indexed": false,
          "internalType": "address",
          "name": "account",
          "type": "address"
        },
        {
          "indexed": false,
          "internalType": "uint256",
          "name": "tokenAmount",
          "type": "uint256"
        }
      ],
      "name": "UserClaimed",
      "type": "event"
    },
    {
      "anonymous": false,
      "inputs": [
        {
          "indexed": false,
          "internalType": "address",
          "name": "account",
          "type": "address"
        },
        {
          "indexed": false,
          "internalType": "uint256",
          "name": "quoteTokenAmount",
          "type": "uint256"
        }
      ],
      "name": "UserRefunded",
      "type": "event"
    },
    {
      "inputs": [
        {
          "internalType": "address",
          "name": "owner",
          "type": "address"
        },
        {
          "internalType": "address",
          "name": "spender",
          "type": "address"
        }
      ],
      "name": "allowance",
      "outputs": [
        {
          "internalType": "uint256",
          "name": "",
          "type": "uint256"
        }
      ],
      "stateMutability": "view",
      "type": "function"
    },
    {
      "inputs": [
        {
          "internalType": "address",
          "name": "",
          "type": "address"
        },
        {
          "internalType": "uint256",
          "name": "",
          "type": "uint256"
        }
      ],
      "name": "approve",
      "outputs": [
        {
          "internalType": "bool",
          "name": "",
          "type": "bool"
        }
      ],
      "stateMutability": "pure",
      "type": "function"
    },
    {
      "inputs": [
        {
          "internalType": "address",
          "name": "account",
          "type": "address"
        }
      ],
      "name": "balanceOf",
      "outputs": [
        {
          "internalType": "uint256",
          "name": "",
          "type": "uint256"
        }
      ],
      "stateMutability": "view",
      "type": "function"
    },
    {
      "inputs": [
        {
          "internalType": "uint256",
          "name": "_quoteTokenAmount",
          "type": "uint256"
        },
        {
          "internalType": "bytes",
          "name": "disclaimerSignature",
          "type": "bytes"
        }
      ],
      "name": "buy",
      "outputs": [],
      "stateMutability": "nonpayable",
      "type": "function"
    },
    {
      "inputs": [],
      "name": "buyCount",
      "outputs": [
        {
          "internalType": "uint256",
          "name": "",
          "type": "uint256"
        }
      ],
      "stateMutability": "view",
      "type": "function"
    },
    {
      "inputs": [
        {
          "internalType": "string",
          "name": "reason",
          "type": "string"
        }
      ],
      "name": "cancel",
      "outputs": [],
      "stateMutability": "nonpayable",
      "type": "function"
    },
    {
      "inputs": [],
      "name": "cancelReason",
      "outputs": [
        {
          "internalType": "string",
          "name": "",
          "type": "string"
        }
      ],
      "stateMutability": "view",
      "type": "function"
    },
    {
      "inputs": [
        {
          "internalType": "string",
          "name": "_infoCID",
          "type": "string"
        }
      ],
      "name": "changeInfoCID",
      "outputs": [],
      "stateMutability": "nonpayable",
      "type": "function"
    },
    {
      "inputs": [],
      "name": "createLiquidity",
      "outputs": [],
      "stateMutability": "nonpayable",
      "type": "function"
    },
    {
      "inputs": [],
      "name": "decimals",
      "outputs": [
        {
          "internalType": "uint8",
          "name": "",
          "type": "uint8"
        }
      ],
      "stateMutability": "view",
      "type": "function"
    },
    {
      "inputs": [],
      "name": "factory",
      "outputs": [
        {
          "internalType": "address",
          "name": "",
          "type": "address"
        }
      ],
      "stateMutability": "view",
      "type": "function"
    },
    {
      "inputs": [],
      "name": "getParams",
      "outputs": [
        {
          "components": [
            {
              "internalType": "address",
              "name": "token",
              "type": "address"
            },
            {
              "internalType": "address",
              "name": "quoteToken",
              "type": "address"
            },
            {
              "internalType": "address",
              "name": "owner",
              "type": "address"
            },
            {
              "internalType": "uint32",
              "name": "startDate",
              "type": "uint32"
            },
            {
              "internalType": "uint32",
              "name": "endDate",
              "type": "uint32"
            },
            {
              "internalType": "uint32",
              "name": "exchangeRate",
              "type": "uint32"
            },
            {
              "internalType": "uint32",
              "name": "releaseDuration",
              "type": "uint32"
            },
            {
              "internalType": "uint32",
              "name": "releaseInterval",
              "type": "uint32"
            },
            {
              "internalType": "uint32",
              "name": "cliffDuration",
              "type": "uint32"
            },
            {
              "internalType": "uint32",
              "name": "initialReleaseRate",
              "type": "uint32"
            },
            {
              "internalType": "uint32",
              "name": "cliffReleaseRate",
              "type": "uint32"
            },
            {
              "internalType": "uint128",
              "name": "hardCapAsQuote",
              "type": "uint128"
            },
            {
              "internalType": "uint128",
              "name": "softCapAsQuote",
              "type": "uint128"
            },
            {
              "internalType": "uint24",
              "name": "liquidityRate",
              "type": "uint24"
            },
            {
              "internalType": "uint24",
              "name": "liquidityFee",
              "type": "uint24"
            },
            {
              "internalType": "int24",
              "name": "priceTick",
              "type": "int24"
            },
            {
              "internalType": "int24",
              "name": "tickLower",
              "type": "int24"
            },
            {
              "internalType": "int24",
              "name": "tickUpper",
              "type": "int24"
            },
            {
              "internalType": "uint32",
              "name": "lockDuration",
              "type": "uint32"
            }
          ],
          "internalType": "struct IInitializableImplementation.LaunchpadParams",
          "name": "",
          "type": "tuple"
        }
      ],
      "stateMutability": "view",
      "type": "function"
    },
    {
      "inputs": [
        {
          "internalType": "address",
          "name": "participant",
          "type": "address"
        }
      ],
      "name": "getParticipantTotalTokenAmount",
      "outputs": [
        {
          "internalType": "uint256",
          "name": "",
          "type": "uint256"
        }
      ],
      "stateMutability": "view",
      "type": "function"
    },
    {
      "inputs": [
        {
          "internalType": "address",
          "name": "participant",
          "type": "address"
        }
      ],
      "name": "getParticipantUnclaimedAmount",
      "outputs": [
        {
          "internalType": "uint256",
          "name": "",
          "type": "uint256"
        }
      ],
      "stateMutability": "view",
      "type": "function"
    },
    {
      "inputs": [
        {
          "internalType": "address",
          "name": "participant",
          "type": "address"
        },
        {
          "internalType": "uint32",
          "name": "timestamp",
          "type": "uint32"
        }
      ],
      "name": "getParticipantUnlockedAmount",
      "outputs": [
        {
          "internalType": "uint256",
          "name": "",
          "type": "uint256"
        }
      ],
      "stateMutability": "view",
      "type": "function"
    },
    {
      "inputs": [],
      "name": "getStatus",
      "outputs": [
        {
          "internalType": "enum UbeStarterLaunchpadV1.LaunchpadStatus",
          "name": "",
          "type": "uint8"
        }
      ],
      "stateMutability": "view",
      "type": "function"
    },
    {
      "inputs": [],
      "name": "infoCID",
      "outputs": [
        {
          "internalType": "string",
          "name": "",
          "type": "string"
        }
      ],
      "stateMutability": "view",
      "type": "function"
    },
    {
      "inputs": [
        {
          "components": [
            {
              "internalType": "address",
              "name": "token",
              "type": "address"
            },
            {
              "internalType": "address",
              "name": "quoteToken",
              "type": "address"
            },
            {
              "internalType": "address",
              "name": "owner",
              "type": "address"
            },
            {
              "internalType": "uint32",
              "name": "startDate",
              "type": "uint32"
            },
            {
              "internalType": "uint32",
              "name": "endDate",
              "type": "uint32"
            },
            {
              "internalType": "uint32",
              "name": "exchangeRate",
              "type": "uint32"
            },
            {
              "internalType": "uint32",
              "name": "releaseDuration",
              "type": "uint32"
            },
            {
              "internalType": "uint32",
              "name": "releaseInterval",
              "type": "uint32"
            },
            {
              "internalType": "uint32",
              "name": "cliffDuration",
              "type": "uint32"
            },
            {
              "internalType": "uint32",
              "name": "initialReleaseRate",
              "type": "uint32"
            },
            {
              "internalType": "uint32",
              "name": "cliffReleaseRate",
              "type": "uint32"
            },
            {
              "internalType": "uint128",
              "name": "hardCapAsQuote",
              "type": "uint128"
            },
            {
              "internalType": "uint128",
              "name": "softCapAsQuote",
              "type": "uint128"
            },
            {
              "internalType": "uint24",
              "name": "liquidityRate",
              "type": "uint24"
            },
            {
              "internalType": "uint24",
              "name": "liquidityFee",
              "type": "uint24"
            },
            {
              "internalType": "int24",
              "name": "priceTick",
              "type": "int24"
            },
            {
              "internalType": "int24",
              "name": "tickLower",
              "type": "int24"
            },
            {
              "internalType": "int24",
              "name": "tickUpper",
              "type": "int24"
            },
            {
              "internalType": "uint32",
              "name": "lockDuration",
              "type": "uint32"
            }
          ],
          "internalType": "struct IInitializableImplementation.LaunchpadParams",
          "name": "_params",
          "type": "tuple"
        },
        {
          "internalType": "bytes",
          "name": "",
          "type": "bytes"
        },
        {
          "internalType": "string",
          "name": "_infoCID",
          "type": "string"
        },
        {
          "internalType": "string",
          "name": "_tokenSymbol",
          "type": "string"
        },
        {
          "internalType": "uint8",
          "name": "_tokenDecimals",
          "type": "uint8"
        }
      ],
      "name": "initialize",
      "outputs": [
        {
          "internalType": "uint256",
          "name": "tokenAmount",
          "type": "uint256"
        }
      ],
      "stateMutability": "nonpayable",
      "type": "function"
    },
    {
      "inputs": [],
      "name": "liquidityTokenId",
      "outputs": [
        {
          "internalType": "uint256",
          "name": "",
          "type": "uint256"
        }
      ],
      "stateMutability": "view",
      "type": "function"
    },
    {
      "inputs": [],
      "name": "name",
      "outputs": [
        {
          "internalType": "string",
          "name": "",
          "type": "string"
        }
      ],
      "stateMutability": "view",
      "type": "function"
    },
    {
      "inputs": [],
      "name": "nftPositionManager",
      "outputs": [
        {
          "internalType": "contract INonfungiblePositionManager",
          "name": "",
          "type": "address"
        }
      ],
      "stateMutability": "view",
      "type": "function"
    },
    {
      "inputs": [
        {
          "internalType": "address",
          "name": "",
          "type": "address"
        },
        {
          "internalType": "address",
          "name": "",
          "type": "address"
        },
        {
          "internalType": "uint256",
          "name": "",
          "type": "uint256"
        },
        {
          "internalType": "bytes",
          "name": "",
          "type": "bytes"
        }
      ],
      "name": "onERC721Received",
      "outputs": [
        {
          "internalType": "bytes4",
          "name": "",
          "type": "bytes4"
        }
      ],
      "stateMutability": "view",
      "type": "function"
    },
    {
      "inputs": [],
      "name": "ownerClaim",
      "outputs": [],
      "stateMutability": "nonpayable",
      "type": "function"
    },
    {
      "inputs": [],
      "name": "ownerRefund",
      "outputs": [],
      "stateMutability": "nonpayable",
      "type": "function"
    },
    {
      "inputs": [],
      "name": "participantCount",
      "outputs": [
        {
          "internalType": "uint256",
          "name": "",
          "type": "uint256"
        }
      ],
      "stateMutability": "view",
      "type": "function"
    },
    {
      "inputs": [
        {
          "internalType": "address",
          "name": "",
          "type": "address"
        }
      ],
      "name": "participantToQuoteAmount",
      "outputs": [
        {
          "internalType": "uint256",
          "name": "",
          "type": "uint256"
        }
      ],
      "stateMutability": "view",
      "type": "function"
    },
    {
      "inputs": [],
      "name": "pool",
      "outputs": [
        {
          "internalType": "contract IUniswapV3Pool",
          "name": "",
          "type": "address"
        }
      ],
      "stateMutability": "view",
      "type": "function"
    },
    {
      "inputs": [
        {
          "internalType": "address",
          "name": "",
          "type": "address"
        }
      ],
      "name": "releasedAmounts",
      "outputs": [
        {
          "internalType": "uint256",
          "name": "",
          "type": "uint256"
        }
      ],
      "stateMutability": "view",
      "type": "function"
    },
    {
      "inputs": [],
      "name": "symbol",
      "outputs": [
        {
          "internalType": "string",
          "name": "",
          "type": "string"
        }
      ],
      "stateMutability": "view",
      "type": "function"
    },
    {
      "inputs": [],
      "name": "totalRaisedAsQuote",
      "outputs": [
        {
          "internalType": "uint256",
          "name": "",
          "type": "uint256"
        }
      ],
      "stateMutability": "view",
      "type": "function"
    },
    {
      "inputs": [],
      "name": "totalReleased",
      "outputs": [
        {
          "internalType": "uint256",
          "name": "",
          "type": "uint256"
        }
      ],
      "stateMutability": "view",
      "type": "function"
    },
    {
      "inputs": [],
      "name": "totalSupply",
      "outputs": [
        {
          "internalType": "uint256",
          "name": "",
          "type": "uint256"
        }
      ],
      "stateMutability": "view",
      "type": "function"
    },
    {
      "inputs": [
        {
          "internalType": "address",
          "name": "",
          "type": "address"
        },
        {
          "internalType": "uint256",
          "name": "",
          "type": "uint256"
        }
      ],
      "name": "transfer",
      "outputs": [
        {
          "internalType": "bool",
          "name": "",
          "type": "bool"
        }
      ],
      "stateMutability": "pure",
      "type": "function"
    },
    {
      "inputs": [
        {
          "internalType": "address",
          "name": "",
          "type": "address"
        },
        {
          "internalType": "address",
          "name": "",
          "type": "address"
        },
        {
          "internalType": "uint256",
          "name": "",
          "type": "uint256"
        }
      ],
      "name": "transferFrom",
      "outputs": [
        {
          "internalType": "bool",
          "name": "",
          "type": "bool"
        }
      ],
      "stateMutability": "pure",
      "type": "function"
    },
    {
      "inputs": [],
      "name": "unlockLiquidity",
      "outputs": [],
      "stateMutability": "nonpayable",
      "type": "function"
    },
    {
      "inputs": [],
      "name": "userClaim",
      "outputs": [],
      "stateMutability": "nonpayable",
      "type": "function"
    },
    {
      "inputs": [],
      "name": "userRefund",
      "outputs": [],
      "stateMutability": "nonpayable",
      "type": "function"
    }
  ],
  "transactionHash": "0x045facf56a6165017bc726e7a934bb4224760630971a89f4492dcc92a6683298",
  "args": [
    "0x897387c7B996485c3AAa85c94272Cd6C506f8c8F"
  ],
  "numDeployments": 2,
  "solcInputHash": "dd792789127e267e7175374b8178f5e9",
  "bytecode": "0x60a06040526011805460ff60a81b1916905534801561001d57600080fd5b50604051615d83380380615d8383398101604081905261003c9161010c565b600160005561004961005a565b6001600160a01b031660805261013c565b7ff0c57e16840df040f15088dc2f81fe391c3923bec73e23a9662efc9c229c6a00805468010000000000000000900460ff16156100aa5760405163f92ee8a960e01b815260040160405180910390fd5b80546001600160401b03908116146101095780546001600160401b0319166001600160401b0390811782556040519081527fc7f505b2f371ae2175ee4913f4499e1f2633a7b5936321eed1cdaeb6115181d29060200160405180910390a15b50565b60006020828403121561011e57600080fd5b81516001600160a01b038116811461013557600080fd5b9392505050565b608051615bf461018f6000396000818161070d01528181610d2c0152818161173e01528181612d7f0152818161332301528181613cb201528181613cdd01528181613de00152613f620152615bf46000f3fe608060405234801561001057600080fd5b50600436106102775760003560e01c80637d0fe7bf11610160578063b1f6e7df116100d8578063d88e82cf1161008c578063de267dc911610071578063de267dc914610839578063e33b7de314610842578063ff6fc2771461084b57600080fd5b8063d88e82cf146107c1578063dd62ed3e146107d457600080fd5b8063c45a0155116100bd578063c45a015514610790578063c7af2a9c146107b0578063ca703075146107b857600080fd5b8063b1f6e7df14610750578063b503afa21461077057600080fd5b806392fdb0231161012f5780639926957b116101145780639926957b14610740578063a9059cbb146102a2578063aa8a2ccf1461074857600080fd5b806392fdb0231461072f57806395d89b411461073857600080fd5b80637d0fe7bf146106cf5780637ef825b8146106e257806382189551146106f5578063843978881461070857600080fd5b806323b872dd116101f35780634e69d560116101c257806360f8dab7116101a757806360f8dab71461066a5780636b54acd91461067257806370a082311461067a57600080fd5b80634e69d560146103fe5780635e615a6b1461041357600080fd5b806323b872dd146103af578063313ce567146103bd578063362f04c0146103ed5780634dbe5889146103f657600080fd5b80630b4f3f3d1161024a578063150b7a021161022f578063150b7a02146102f557806316f0115b1461033957806318160ddd1461037e57600080fd5b80630b4f3f3d146102da578063120b7f73146102ed57600080fd5b806306fdde031461027c57806308f7a6cc1461029a578063095ea7b3146102a25780630a06898c146102c5575b600080fd5b61028461085e565b6040516102919190614a38565b60405180910390f35b610284610933565b6102b56102b0366004614a80565b6109c1565b6040519015158152602001610291565b6102d86102d3366004614bb9565b610a2b565b005b6102d86102e8366004614bb9565b610b2a565b610284610d05565b610308610303366004614bf6565b610d12565b6040517fffffffff000000000000000000000000000000000000000000000000000000009091168152602001610291565b6011546103599073ffffffffffffffffffffffffffffffffffffffff1681565b60405173ffffffffffffffffffffffffffffffffffffffff9091168152602001610291565b7f52c63247e1f47db19d5ce0460030c497f067ca4cebf71ba98eeadabe20bace02545b604051908152602001610291565b6102b56102b0366004614c97565b60115474010000000000000000000000000000000000000000900460ff1660405160ff9091168152602001610291565b6103a160095481565b6102d8610ddf565b6104066111f4565b6040516102919190614d07565b61065d6040805161026081018252600080825260208201819052918101829052606081018290526080810182905260a0810182905260c0810182905260e08101829052610100810182905261012081018290526101408101829052610160810182905261018081018290526101a081018290526101c081018290526101e08101829052610200810182905261022081018290526102408101919091525060408051610260810182526002805473ffffffffffffffffffffffffffffffffffffffff9081168352600354811660208401526004549081169383019390935263ffffffff7401000000000000000000000000000000000000000084048116606084015278010000000000000000000000000000000000000000000000008404811660808401527c0100000000000000000000000000000000000000000000000000000000909304831660a083015260055480841660c08401526401000000008104841660e084015268010000000000000000810484166101008401526c0100000000000000000000000080820485166101208501527001000000000000000000000000000000009182900485166101408501526006546fffffffffffffffffffffffffffffffff80821661016087015292900490911661018084015260075462ffffff8082166101a086015263010000008204166101c085015266010000000000008104830b6101e085015269010000000000000000008104830b61020085015290810490910b6102208301526f01000000000000000000000000000000900490911661024082015290565b6040516102919190614d48565b6102d86112f1565b6102d861153a565b6103a1610688366004614f60565b73ffffffffffffffffffffffffffffffffffffffff1660009081527f52c63247e1f47db19d5ce0460030c497f067ca4cebf71ba98eeadabe20bace00602052604090205490565b6103a16106dd366004615001565b6117cd565b6103a16106f0366004614f60565b611e8c565b6102d861070336600461521f565b611ec1565b6103597f000000000000000000000000000000000000000000000000000000000000000081565b6103a1600c5481565b610284612020565b6102d8612071565b6102d861229a565b6103a161075e366004614f60565b600e6020526000908152604090205481565b6103a161077e366004614f60565b600d6020526000908152604090205481565b6001546103599073ffffffffffffffffffffffffffffffffffffffff1681565b6102d8612538565b6103a1600a5481565b6103a16107cf366004614f60565b6126eb565b6103a16107e2366004615266565b73ffffffffffffffffffffffffffffffffffffffff91821660009081527f52c63247e1f47db19d5ce0460030c497f067ca4cebf71ba98eeadabe20bace016020908152604080832093909416825291909152205490565b6103a1600b5481565b6103a1600f5481565b6103a161085936600461529f565b612732565b7f52c63247e1f47db19d5ce0460030c497f067ca4cebf71ba98eeadabe20bace0380546060917f52c63247e1f47db19d5ce0460030c497f067ca4cebf71ba98eeadabe20bace00916108af906152d4565b80601f01602080910402602001604051908101604052809291908181526020018280546108db906152d4565b80156109285780601f106108fd57610100808354040283529160200191610928565b820191906000526020600020905b81548152906001019060200180831161090b57829003601f168201915b505050505091505090565b60108054610940906152d4565b80601f016020809104026020016040519081016040528092919081815260200182805461096c906152d4565b80156109b95780601f1061098e576101008083540402835291602001916109b9565b820191906000526020600020905b81548152906001019060200180831161099c57829003601f168201915b505050505081565b6040517f08c379a000000000000000000000000000000000000000000000000000000000815260206004820152601060248201527f6e6f6e2d7472616e7366657261626c650000000000000000000000000000000060448201526000906064015b60405180910390fd5b60045473ffffffffffffffffffffffffffffffffffffffff163314610aac576040517f08c379a000000000000000000000000000000000000000000000000000000000815260206004820152600a60248201527f4f6e6c79206f776e6572000000000000000000000000000000000000000000006044820152606401610a22565b610ab96201518042615356565b60045474010000000000000000000000000000000000000000900463ffffffff1611610ae457600080fd5b6008610af082826153b7565b507eb2949811e7959655720b235ddaf73442e5ade37c1ba133f97a63252598c3bd81604051610b1f9190614a38565b60405180910390a150565b60045473ffffffffffffffffffffffffffffffffffffffff16331480610b67575060015473ffffffffffffffffffffffffffffffffffffffff1633145b610bcd576040517f08c379a000000000000000000000000000000000000000000000000000000000815260206004820152601560248201527f6f6e6c79206f776e6572206f7220666163746f727900000000000000000000006044820152606401610a22565b6000610bd76111f4565b90506000816005811115610bed57610bed614cd8565b1480610c1557506002816005811115610c0857610c08614cd8565b148015610c155750600c54155b610c7b576040517f08c379a000000000000000000000000000000000000000000000000000000000815260206004820152600e60248201527f696e76616c6964207374617475730000000000000000000000000000000000006044820152606401610a22565b601180547fffffffffffffffffffff00ffffffffffffffffffffffffffffffffffffffffff1675010000000000000000000000000000000000000000001790556010610cc783826153b7565b507f5710a4f30aa3360ca208a35f347ffb3d0ecab78fafa47dfebe6cfd50ba7f0dd33383604051610cf99291906154d0565b60405180910390a15050565b60088054610940906152d4565b60003373ffffffffffffffffffffffffffffffffffffffff7f00000000000000000000000000000000000000000000000000000000000000001614610db3576040517f08c379a000000000000000000000000000000000000000000000000000000000815260206004820152600f60248201527f6e6f742061207562657633206e667400000000000000000000000000000000006044820152606401610a22565b507f150b7a02000000000000000000000000000000000000000000000000000000005b95945050505050565b610de76128d1565b60045473ffffffffffffffffffffffffffffffffffffffff163314610e68576040517f08c379a000000000000000000000000000000000000000000000000000000000815260206004820152600a60248201527f4f6e6c79206f776e6572000000000000000000000000000000000000000000006044820152606401610a22565b6003610e726111f4565b6005811115610e8357610e83614cd8565b14610eea576040517f08c379a000000000000000000000000000000000000000000000000000000000815260206004820152601260248201527f737461747573206973206e6f7420646f6e6500000000000000000000000000006044820152606401610a22565b6003546040517f70a0823100000000000000000000000000000000000000000000000000000000815230600482015273ffffffffffffffffffffffffffffffffffffffff9091169060009082906370a0823190602401602060405180830381865afa158015610f5d573d6000803e3d6000fd5b505050506040513d601f19601f82011682018060405250810190610f8191906154ff565b60025490915073ffffffffffffffffffffffffffffffffffffffff166000610fc77f52c63247e1f47db19d5ce0460030c497f067ca4cebf71ba98eeadabe20bace025490565b6040517f70a0823100000000000000000000000000000000000000000000000000000000815230600482015290915060009073ffffffffffffffffffffffffffffffffffffffff8416906370a0823190602401602060405180830381865afa158015611037573d6000803e3d6000fd5b505050506040513d601f19601f8201168201806040525081019061105b91906154ff565b905083156110fc576040517fa9059cbb0000000000000000000000000000000000000000000000000000000081523360048201526024810185905273ffffffffffffffffffffffffffffffffffffffff86169063a9059cbb906044016020604051808303816000875af11580156110d6573d6000803e3d6000fd5b505050506040513d601f19601f820116820180604052508101906110fa9190615528565b505b808210156111aa5761110e8282615543565b6040517fa9059cbb0000000000000000000000000000000000000000000000000000000081523360048201526024810182905290915073ffffffffffffffffffffffffffffffffffffffff84169063a9059cbb906044016020604051808303816000875af1158015611184573d6000803e3d6000fd5b505050506040513d601f19601f820116820180604052508101906111a89190615528565b505b60408051828152602081018690527f6b9a43b2518b65aac89179cc49a77ffd7ae828c57cd2d7d73d24928019b40fd5910160405180910390a150505050506111f26001600055565b565b6011546000907501000000000000000000000000000000000000000000900460ff16156112215750600590565b600c541561122f5750600390565b60045474010000000000000000000000000000000000000000900463ffffffff1642101561125d5750600090565b6004547801000000000000000000000000000000000000000000000000900463ffffffff1642106112c657600654600b547001000000000000000000000000000000009091046fffffffffffffffffffffffffffffffff16116112c05750600290565b50600490565b600654600b546fffffffffffffffffffffffffffffffff909116116112eb5750600290565b50600190565b6112f96128d1565b60006113036111f4565b9050600481600581111561131957611319614cd8565b14806113365750600581600581111561133457611334614cd8565b145b61139c576040517f08c379a000000000000000000000000000000000000000000000000000000000815260206004820152601560248201527f746f6b656e2073616c65206e6f74206661696c656400000000000000000000006044820152606401610a22565b336000908152600d602052604090205480611413576040517f08c379a000000000000000000000000000000000000000000000000000000000815260206004820152601460248201527f4e6f20726566756e6461626c6520616d6f756e740000000000000000000000006044820152606401610a22565b336000818152600d602090815260408083208390557f52c63247e1f47db19d5ce0460030c497f067ca4cebf71ba98eeadabe20bace009091529020546114599190612914565b6003546040517fa9059cbb0000000000000000000000000000000000000000000000000000000081523360048201526024810183905273ffffffffffffffffffffffffffffffffffffffff9091169063a9059cbb906044016020604051808303816000875af11580156114d0573d6000803e3d6000fd5b505050506040513d601f19601f820116820180604052508101906114f49190615528565b5060408051338152602081018390527f7b742095fd862a654f678473e0672300ad790a7c49739100c3c5dbd5222c2e50910160405180910390a150506111f26001600055565b6115426128d1565b60045473ffffffffffffffffffffffffffffffffffffffff1633146115c3576040517f08c379a000000000000000000000000000000000000000000000000000000000815260206004820152600a60248201527f4f6e6c79206f776e6572000000000000000000000000000000000000000000006044820152606401610a22565b6000600c541161162f576040517f08c379a000000000000000000000000000000000000000000000000000000000815260206004820152600c60248201527f6e6f206c697175696469747900000000000000000000000000000000000000006044820152606401610a22565b6007546004546116779163ffffffff6f010000000000000000000000000000009091048116917801000000000000000000000000000000000000000000000000900416615556565b63ffffffff1642116116e5576040517f08c379a000000000000000000000000000000000000000000000000000000000815260206004820152600660248201527f6c6f636b656400000000000000000000000000000000000000000000000000006044820152606401610a22565b60048054600c546040517f42842e0e000000000000000000000000000000000000000000000000000000008152309381019390935273ffffffffffffffffffffffffffffffffffffffff918216602484015260448301527f000000000000000000000000000000000000000000000000000000000000000016906342842e0e90606401600060405180830381600087803b15801561178257600080fd5b505af1158015611796573d6000803e3d6000fd5b50506040517f175e049bb68bcee8f7b1c836f5d07f408d5f8ae38c23e4dca3f68888334529a7925060009150a16111f26001600055565b7ff0c57e16840df040f15088dc2f81fe391c3923bec73e23a9662efc9c229c6a0080546000919068010000000000000000810460ff16159067ffffffffffffffff16838115801561181b5750825b905060008267ffffffffffffffff1660011480156118385750303b155b905081158015611846575080155b1561187d576040517ff92ee8a900000000000000000000000000000000000000000000000000000000815260040160405180910390fd5b84547fffffffffffffffffffffffffffffffffffffffffffffffff000000000000000016600117855583156118de5784547fffffffffffffffffffffffffffffffffffffffffffffff00ffffffffffffffff16680100000000000000001785555b6118e78b612970565b61192f886040516020016118fb9190615572565b6040516020818303038152906040528960405160200161191b91906155b7565b6040516020818303038152906040526132cb565b86601160146101000a81548160ff021916908360ff1602179055508a600260008201518160000160006101000a81548173ffffffffffffffffffffffffffffffffffffffff021916908373ffffffffffffffffffffffffffffffffffffffff16021790555060208201518160010160006101000a81548173ffffffffffffffffffffffffffffffffffffffff021916908373ffffffffffffffffffffffffffffffffffffffff16021790555060408201518160020160006101000a81548173ffffffffffffffffffffffffffffffffffffffff021916908373ffffffffffffffffffffffffffffffffffffffff16021790555060608201518160020160146101000a81548163ffffffff021916908363ffffffff16021790555060808201518160020160186101000a81548163ffffffff021916908363ffffffff16021790555060a082015181600201601c6101000a81548163ffffffff021916908363ffffffff16021790555060c08201518160030160006101000a81548163ffffffff021916908363ffffffff16021790555060e08201518160030160046101000a81548163ffffffff021916908363ffffffff1602179055506101008201518160030160086101000a81548163ffffffff021916908363ffffffff16021790555061012082015181600301600c6101000a81548163ffffffff021916908363ffffffff1602179055506101408201518160030160106101000a81548163ffffffff021916908363ffffffff1602179055506101608201518160040160006101000a8154816fffffffffffffffffffffffffffffffff02191690836fffffffffffffffffffffffffffffffff1602179055506101808201518160040160106101000a8154816fffffffffffffffffffffffffffffffff02191690836fffffffffffffffffffffffffffffffff1602179055506101a08201518160050160006101000a81548162ffffff021916908362ffffff1602179055506101c08201518160050160036101000a81548162ffffff021916908362ffffff1602179055506101e08201518160050160066101000a81548162ffffff021916908360020b62ffffff1602179055506102008201518160050160096101000a81548162ffffff021916908360020b62ffffff16021790555061022082015181600501600c6101000a81548162ffffff021916908360020b62ffffff16021790555061024082015181600501600f6101000a81548163ffffffff021916908363ffffffff1602179055509050508860089081611cde91906153b7565b50600180547fffffffffffffffffffffffff00000000000000000000000000000000000000001633179055611d116132dd565b601180547fffffffffffffffffffffffff00000000000000000000000000000000000000001673ffffffffffffffffffffffffffffffffffffffff92909216919091179055600654600090611d77906fffffffffffffffffffffffffffffffff16613556565b600754600654919250600091620186a091611dab9162ffffff909116906fffffffffffffffffffffffffffffffff166155fc565b611db59190615656565b600754600354600280546fffffffffffffffffffffffffffffffff949094169450600093611e0c936601000000000000900490910b91859173ffffffffffffffffffffffffffffffffffffffff9182169116613715565b9050611e188184615356565b98505050508315611e7e5784547fffffffffffffffffffffffffffffffffffffffffffffff00ffffffffffffffff168555604051600181527fc7f505b2f371ae2175ee4913f4499e1f2633a7b5936321eed1cdaeb6115181d29060200160405180910390a15b505050505095945050505050565b73ffffffffffffffffffffffffffffffffffffffff81166000908152600d6020526040812054611ebb90613556565b92915050565b611ec96128d1565b6001611ed36111f4565b6005811115611ee457611ee4614cd8565b14611f4b576040517f08c379a000000000000000000000000000000000000000000000000000000000815260206004820152601860248201527f546f6b656e2073616c65206973206e6f742061637469766500000000000000006044820152606401610a22565b6004543373ffffffffffffffffffffffffffffffffffffffff90911603611fce576040517f08c379a000000000000000000000000000000000000000000000000000000000815260206004820152601160248201527f6f776e65722063616e206e6f74206275790000000000000000000000000000006044820152606401610a22565b611fd7826138ef565b7f9c79a412d68b8c4ce709561007a4d2316f04d74b4347bee319bdc322475a48a633838360405161200a93929190615696565b60405180910390a161201c6001600055565b5050565b7f52c63247e1f47db19d5ce0460030c497f067ca4cebf71ba98eeadabe20bace0480546060917f52c63247e1f47db19d5ce0460030c497f067ca4cebf71ba98eeadabe20bace00916108af906152d4565b6120796128d1565b60036120836111f4565b600581111561209457612094614cd8565b146120fb576040517f08c379a000000000000000000000000000000000000000000000000000000000815260206004820152601260248201527f737461747573206973206e6f7420646f6e6500000000000000000000000000006044820152606401610a22565b6000612106336126eb565b905060008111612172576040517f08c379a000000000000000000000000000000000000000000000000000000000815260206004820152601460248201527f4e6f2072656c65617361626c6520616d6f756e740000000000000000000000006044820152606401610a22565b336000908152600e602052604081208054839290612191908490615356565b9250508190555080600f60008282546121aa9190615356565b909155506121ba90503382612914565b6002546040517fa9059cbb0000000000000000000000000000000000000000000000000000000081523360048201526024810183905273ffffffffffffffffffffffffffffffffffffffff9091169063a9059cbb906044016020604051808303816000875af1158015612231573d6000803e3d6000fd5b505050506040513d601f19601f820116820180604052508101906122559190615528565b5060408051338152602081018390527f5329b89678b0f095cae2abe10b88ad57329871ee9296ae8f358a46b9fa0ff328910160405180910390a1506111f26001600055565b6122a26128d1565b60045473ffffffffffffffffffffffffffffffffffffffff163314612323576040517f08c379a000000000000000000000000000000000000000000000000000000000815260206004820152600a60248201527f4f6e6c79206f776e6572000000000000000000000000000000000000000000006044820152606401610a22565b600061232d6111f4565b9050600481600581111561234357612343614cd8565b14806123605750600581600581111561235e5761235e614cd8565b145b6123c6576040517f08c379a000000000000000000000000000000000000000000000000000000000815260206004820152601560248201527f746f6b656e2073616c65206e6f74206661696c656400000000000000000000006044820152606401610a22565b6002546040517f70a0823100000000000000000000000000000000000000000000000000000000815230600482015273ffffffffffffffffffffffffffffffffffffffff9091169060009082906370a0823190602401602060405180830381865afa158015612439573d6000803e3d6000fd5b505050506040513d601f19601f8201168201806040525081019061245d91906154ff565b6040517fa9059cbb0000000000000000000000000000000000000000000000000000000081523360048201526024810182905290915073ffffffffffffffffffffffffffffffffffffffff83169063a9059cbb906044016020604051808303816000875af11580156124d3573d6000803e3d6000fd5b505050506040513d601f19601f820116820180604052508101906124f79190615528565b506040518181527fe30b4047fe3f241feaa6f773d660f129072aaf8b1fb1ef2d6c19131ff475b7739060200160405180910390a15050506111f26001600055565b6125406128d1565b600261254a6111f4565b600581111561255b5761255b614cd8565b146125c2576040517f08c379a000000000000000000000000000000000000000000000000000000000815260206004820152601860248201527f746f6b656e2073616c65206e6f742073756363656564656400000000000000006044820152606401610a22565b600c541561262c576040517f08c379a000000000000000000000000000000000000000000000000000000000815260206004820152601960248201527f6c697175696469747920616c72656164792063726561746564000000000000006044820152606401610a22565b6004547801000000000000000000000000000000000000000000000000900463ffffffff164210156126d95760045473ffffffffffffffffffffffffffffffffffffffff1633146126d9576040517f08c379a000000000000000000000000000000000000000000000000000000000815260206004820152600a60248201527f4f6e6c79206f776e6572000000000000000000000000000000000000000000006044820152606401610a22565b6126e1613ab2565b6111f26001600055565b6000806126f88342612732565b73ffffffffffffffffffffffffffffffffffffffff84166000908152600e602052604090205490915061272b9082615543565b9392505050565b60008061273e84611e8c565b60045490915060009063ffffffff78010000000000000000000000000000000000000000000000009091048116908516106127b257600554620186a09061279b906c01000000000000000000000000900463ffffffff16846156cb565b6127a591906156e2565b6127af9082615356565b90505b6005546004546127f39163ffffffff680100000000000000009091048116917801000000000000000000000000000000000000000000000000900416615556565b63ffffffff168463ffffffff161061284857600554620186a09061283190700100000000000000000000000000000000900463ffffffff16846156cb565b61283b91906156e2565b6128459082615356565b90505b60006128548284615543565b60055460045491925083916128bd91849189916128a39163ffffffff68010000000000000000909204821691780100000000000000000000000000000000000000000000000090910416615556565b60055463ffffffff80821691640100000000900416613fe0565b6128c79190615356565b9695505050505050565b60026000540361290d576040517f3ee5aeb500000000000000000000000000000000000000000000000000000000815260040160405180910390fd5b6002600055565b73ffffffffffffffffffffffffffffffffffffffff8216612964576040517f96c6fd1e00000000000000000000000000000000000000000000000000000000815260006004820152602401610a22565b61201c82600083614081565b604081015173ffffffffffffffffffffffffffffffffffffffff166129f1576040517f08c379a000000000000000000000000000000000000000000000000000000000815260206004820152600d60248201527f696e76616c6964206f776e6572000000000000000000000000000000000000006044820152606401610a22565b6129fe6203f48042615356565b816060015163ffffffff1610158015612a2d5750612a1f62278d0042615356565b816060015163ffffffff1611155b612a93576040517f08c379a000000000000000000000000000000000000000000000000000000000815260206004820152601160248201527f696e76616c6964207374617274646174650000000000000000000000000000006044820152606401610a22565b62015180816060015163ffffffff16612aac9190615356565b816080015163ffffffff1610158015612ae7575062093a80816060015163ffffffff16612ad99190615356565b816080015163ffffffff1611155b612b4d576040517f08c379a000000000000000000000000000000000000000000000000000000000815260206004820152600f60248201527f696e76616c696420656e644461746500000000000000000000000000000000006044820152606401610a22565b60008160a0015163ffffffff1611612bc1576040517f08c379a000000000000000000000000000000000000000000000000000000000815260206004820152601460248201527f696e76616c69642065786368616e6765526174650000000000000000000000006044820152606401610a22565b60c081015163ffffffff161580612beb57508060c0015163ffffffff168160e0015163ffffffff16105b8015612c0e57508060e001518160c00151612c0691906156f6565b63ffffffff16155b8015612c28575062278d0081610100015163ffffffff1611155b8015612c425750620186a081610120015163ffffffff1611155b8015612c5c5750620186a081610140015163ffffffff1611155b8015612c865750620186a0816101400151826101200151612c7d9190615556565b63ffffffff1611155b612cec576040517f08c379a000000000000000000000000000000000000000000000000000000000815260206004820152601460248201527f696e76616c69642072656c6561736520646174610000000000000000000000006044820152606401610a22565b614e20816101a0015162ffffff1610158015612d155750620186a0816101a0015162ffffff1611155b612d7b576040517f08c379a000000000000000000000000000000000000000000000000000000000815260206004820152601560248201527f696e76616c6964206c69717569646974795261746500000000000000000000006044820152606401610a22565b60007f000000000000000000000000000000000000000000000000000000000000000073ffffffffffffffffffffffffffffffffffffffff1663c45a01556040518163ffffffff1660e01b8152600401602060405180830381865afa158015612de8573d6000803e3d6000fd5b505050506040513d601f19601f82011682018060405250810190612e0c919061571e565b6101c08301516040517f22afcccb00000000000000000000000000000000000000000000000000000000815262ffffff909116600482015273ffffffffffffffffffffffffffffffffffffffff91909116906322afcccb90602401602060405180830381865afa158015612e84573d6000803e3d6000fd5b505050506040513d601f19601f82011682018060405250810190612ea8919061573b565b905060008160020b13612f17576040517f08c379a000000000000000000000000000000000000000000000000000000000815260206004820152601460248201527f696e76616c6964206c69717569646974794665650000000000000000000000006044820152606401610a22565b80826102000151612f289190615758565b60020b15612f92576040517f08c379a000000000000000000000000000000000000000000000000000000000815260206004820152600360248201527f544c5300000000000000000000000000000000000000000000000000000000006044820152606401610a22565b80826102200151612fa39190615758565b60020b1561300d576040517f08c379a000000000000000000000000000000000000000000000000000000000815260206004820152600360248201527f54555300000000000000000000000000000000000000000000000000000000006044820152606401610a22565b816101e0015160020b82610200015160020b12801561303b5750816101e0015160020b82610220015160020b135b6130a1576040517f08c379a000000000000000000000000000000000000000000000000000000000815260206004820152600360248201527f544c5500000000000000000000000000000000000000000000000000000000006044820152606401610a22565b7ffffffffffffffffffffffffffffffffffffffffffffffffffffffffffff2761860020b82610200015160020b1215613136576040517f08c379a000000000000000000000000000000000000000000000000000000000815260206004820152600360248201527f544c4d00000000000000000000000000000000000000000000000000000000006044820152606401610a22565b61315f7ffffffffffffffffffffffffffffffffffffffffffffffffffffffffffff2761861577a565b60020b82610220015160020b13156131d3576040517f08c379a000000000000000000000000000000000000000000000000000000000815260206004820152600360248201527f54554d00000000000000000000000000000000000000000000000000000000006044820152606401610a22565b610200820151610220830151612328916131ec916157b8565b60020b13613256576040517f08c379a000000000000000000000000000000000000000000000000000000000815260206004820152601260248201527f696e76616c6964207469636b2072616e676500000000000000000000000000006044820152606401610a22565b600082610240015163ffffffff161161201c576040517f08c379a000000000000000000000000000000000000000000000000000000000815260206004820152601560248201527f696e76616c6964206c6f636b206475726174696f6e00000000000000000000006044820152606401610a22565b6132d3614252565b61201c82826142b9565b60025460035460009173ffffffffffffffffffffffffffffffffffffffff908116911680821061330957905b60075473ffffffffffffffffffffffffffffffffffffffff7f000000000000000000000000000000000000000000000000000000000000000016906313ead562908490849062ffffff630100000082041690613371906601000000000000900460020b614322565b6040517fffffffff0000000000000000000000000000000000000000000000000000000060e087901b16815273ffffffffffffffffffffffffffffffffffffffff9485166004820152928416602484015262ffffff90911660448301529190911660648201526084016020604051808303816000875af11580156133f9573d6000803e3d6000fd5b505050506040513d601f19601f8201168201806040525081019061341d919061571e565b925060008373ffffffffffffffffffffffffffffffffffffffff16633850c7bd6040518163ffffffff1660e01b815260040160e060405180830381865afa15801561346c573d6000803e3d6000fd5b505050506040513d601f19601f82011682018060405250810190613490919061580b565b50506007549395506134b794506064936601000000000000900460020b92506157b8915050565b60020b8160020b1380156134ea57506007546134e1906601000000000000900460020b6064615898565b60020b8160020b125b613550576040517f08c379a000000000000000000000000000000000000000000000000000000000815260206004820152601260248201527f696e76616c696420706f6f6c20707269636500000000000000000000000000006044820152606401610a22565b50505090565b600080600260010160009054906101000a900473ffffffffffffffffffffffffffffffffffffffff1673ffffffffffffffffffffffffffffffffffffffff1663313ce5676040518163ffffffff1660e01b8152600401602060405180830381865afa1580156135c9573d6000803e3d6000fd5b505050506040513d601f19601f820116820180604052508101906135ed91906158d9565b60115490915060009060ff808416740100000000000000000000000000000000000000009092041611613621576001613655565b60115461364a90839074010000000000000000000000000000000000000000900460ff166158f6565b61365590600a615a32565b60115490915060009060ff7401000000000000000000000000000000000000000090910481169084161161368a5760016136bd565b6011546136b29074010000000000000000000000000000000000000000900460ff16846158f6565b6136bd90600a615a32565b90506136cc81620186a06156cb565b6004548390613701907c0100000000000000000000000000000000000000000000000000000000900463ffffffff16886156cb565b61370b91906156cb565b610dd691906156e2565b60008061372186614322565b90506fffffffffffffffffffffffffffffffff73ffffffffffffffffffffffffffffffffffffffff82161161382057600061377273ffffffffffffffffffffffffffffffffffffffff8316806156cb565b90508373ffffffffffffffffffffffffffffffffffffffff168573ffffffffffffffffffffffffffffffffffffffff16106137e2576137dd7801000000000000000000000000000000000000000000000000876fffffffffffffffffffffffffffffffff1683614689565b613818565b61381881876fffffffffffffffffffffffffffffffff167801000000000000000000000000000000000000000000000000614689565b9250506138e6565b600061384c73ffffffffffffffffffffffffffffffffffffffff83168068010000000000000000614689565b90508373ffffffffffffffffffffffffffffffffffffffff168573ffffffffffffffffffffffffffffffffffffffff16106138b4576138af700100000000000000000000000000000000876fffffffffffffffffffffffffffffffff1683614689565b6138e2565b6138e281876fffffffffffffffffffffffffffffffff16700100000000000000000000000000000000614689565b9250505b50949350505050565b600654600b546fffffffffffffffffffffffffffffffff90911690613915908390615356565b111561394057600b5460065461393d91906fffffffffffffffffffffffffffffffff16615543565b90505b336000908152600d60205260408120549081900361396e576009805490600061396883615a41565b91905055505b600a805490600061397e83615a41565b9091555050336000908152600d6020526040812080548492906139a2908490615356565b9250508190555081600b60008282546139bb9190615356565b90915550503360008181527f52c63247e1f47db19d5ce0460030c497f067ca4cebf71ba98eeadabe20bace006020526040902054613a0c91906139fd33611e8c565b613a079190615543565b614749565b6003546040517f23b872dd0000000000000000000000000000000000000000000000000000000081523360048201523060248201526044810184905273ffffffffffffffffffffffffffffffffffffffff909116906323b872dd906064016020604051808303816000875af1158015613a89573d6000803e3d6000fd5b505050506040513d601f19601f82011682018060405250810190613aad9190615528565b505050565b601154604080517f3850c7bd000000000000000000000000000000000000000000000000000000008152905160009273ffffffffffffffffffffffffffffffffffffffff1691633850c7bd9160048083019260e09291908290030181865afa158015613b22573d6000803e3d6000fd5b505050506040513d601f19601f82011682018060405250810190613b46919061580b565b5050600754939550613b6d94506064936601000000000000900460020b92506157b8915050565b60020b8160020b138015613ba05750600754613b97906601000000000000900460020b6064615898565b60020b8160020b125b613c06576040517f08c379a000000000000000000000000000000000000000000000000000000000815260206004820152601260248201527f696e76616c696420706f6f6c20707269636500000000000000000000000000006044820152606401610a22565b600254600354600754600b5473ffffffffffffffffffffffffffffffffffffffff9384169390921691600091620186a091613c469162ffffff16906156cb565b613c5091906156e2565b600754909150600090613c72906601000000000000900460020b838587613715565b90508273ffffffffffffffffffffffffffffffffffffffff168473ffffffffffffffffffffffffffffffffffffffff1610613cac57919291905b613cd7847f0000000000000000000000000000000000000000000000000000000000000000836147a5565b613d02837f0000000000000000000000000000000000000000000000000000000000000000846147a5565b604080516101608101825273ffffffffffffffffffffffffffffffffffffffff80871682528516602082015260075462ffffff63010000008204169282019290925269010000000000000000008204600290810b60608301526c0100000000000000000000000090920490910b608082015260a0810182905260c0810183905260009060e081016064613d968560626156cb565b613da091906156e2565b81526020016064613db28660626156cb565b613dbc91906156e2565b8152306020820152604001613dd34261012c615356565b81525090506000806000807f000000000000000000000000000000000000000000000000000000000000000073ffffffffffffffffffffffffffffffffffffffff166388316456866040518263ffffffff1660e01b8152600401613e379190615a79565b6080604051808303816000875af1158015613e56573d6000803e3d6000fd5b505050506040513d601f19601f82011682018060405250810190613e7a9190615b64565b600c849055604080518581526fffffffffffffffffffffffffffffffff8516602082015290810183905260608101829052939750919550935091507fb15b86c5915ee0a48b9810632f8a994622f959b2a1f4cb6f088421a52251ff6c9060800160405180910390a16007547fffffffffffffffffffffffffffffffffffffffffffffffffffffffff000000016f0100000000000000000000000000000090910463ffffffff1601613fd4576040517f42842e0e00000000000000000000000000000000000000000000000000000000815230600482015261dead6024820152604481018590527f000000000000000000000000000000000000000000000000000000000000000073ffffffffffffffffffffffffffffffffffffffff16906342842e0e90606401600060405180830381600087803b158015613fbb57600080fd5b505af1158015613fcf573d6000803e3d6000fd5b505050505b50505050505050505050565b60008363ffffffff168563ffffffff161015613ffe57506000610dd6565b6140088385615556565b63ffffffff168563ffffffff161115614022575084610dd6565b600061402e8587615ba3565b63ffffffff16905060006140428486615bbf565b63ffffffff1690506000614056828a6156e2565b9050600061406a63ffffffff8716856156e2565b905061407682826156cb565b945050505050610dd6565b7f52c63247e1f47db19d5ce0460030c497f067ca4cebf71ba98eeadabe20bace0073ffffffffffffffffffffffffffffffffffffffff84166140dc57818160020160008282546140d19190615356565b9091555061418e9050565b73ffffffffffffffffffffffffffffffffffffffff841660009081526020829052604090205482811015614162576040517fe450d38c00000000000000000000000000000000000000000000000000000000815273ffffffffffffffffffffffffffffffffffffffff861660048201526024810182905260448101849052606401610a22565b73ffffffffffffffffffffffffffffffffffffffff851660009081526020839052604090209083900390555b73ffffffffffffffffffffffffffffffffffffffff83166141b95760028101805483900390556141e5565b73ffffffffffffffffffffffffffffffffffffffff831660009081526020829052604090208054830190555b8273ffffffffffffffffffffffffffffffffffffffff168473ffffffffffffffffffffffffffffffffffffffff167fddf252ad1be2c89b69c2b068fc378daa952ba7f163c4a11628f55a4df523b3ef8460405161424491815260200190565b60405180910390a350505050565b7ff0c57e16840df040f15088dc2f81fe391c3923bec73e23a9662efc9c229c6a005468010000000000000000900460ff166111f2576040517fd7e6bcf800000000000000000000000000000000000000000000000000000000815260040160405180910390fd5b6142c1614252565b7f52c63247e1f47db19d5ce0460030c497f067ca4cebf71ba98eeadabe20bace007f52c63247e1f47db19d5ce0460030c497f067ca4cebf71ba98eeadabe20bace0361430d84826153b7565b506004810161431c83826153b7565b50505050565b60008060008360020b12614339578260020b614341565b8260020b6000035b9050620d89e8811115614380576040517fce8ef7fc00000000000000000000000000000000000000000000000000000000815260040160405180910390fd5b6000816001166000036143a4577001000000000000000000000000000000006143b6565b6ffffcb933bd6fad37aa2d162d1a5940015b70ffffffffffffffffffffffffffffffffff16905060028216156143ea576ffff97272373d413259a46990580e213a0260801c5b6004821615614409576ffff2e50f5f656932ef12357cf3c7fdcc0260801c5b6008821615614428576fffe5caca7e10e4e61c3624eaa0941cd00260801c5b6010821615614447576fffcb9843d60f6159c9db58835c9266440260801c5b6020821615614466576fff973b41fa98c081472e6896dfb254c00260801c5b6040821615614485576fff2ea16466c96a3843ec78b326b528610260801c5b60808216156144a4576ffe5dee046a99a2a811c461f1969c30530260801c5b6101008216156144c4576ffcbe86c7900a88aedcffc83b479aa3a40260801c5b6102008216156144e4576ff987a7253ac413176f2b074cf7815e540260801c5b610400821615614504576ff3392b0822b70005940c7a398e4b70f30260801c5b610800821615614524576fe7159475a2c29b7443b29c7fa6e889d90260801c5b611000821615614544576fd097f3bdfd2022b8845ad8f792aa58250260801c5b612000821615614564576fa9f746462d870fdf8a65dc1f90e061e50260801c5b614000821615614584576f70d869a156d2a1b890bb3df62baf32f70260801c5b6180008216156145a4576f31be135f97d08fd981231505542fcfa60260801c5b620100008216156145c5576f09aa508b5b7a84e1c677de54f3e99bc90260801c5b620200008216156145e5576e5d6af8dedb81196699c329225ee6040260801c5b62040000821615614604576d2216e584f5fa1ea926041bedfe980260801c5b62080000821615614621576b048a170391f7dc42444e8fa20260801c5b60008460020b131561466057807fffffffffffffffffffffffffffffffffffffffffffffffffffffffffffffffff8161465c5761465c615627565b0490505b640100000000810615614674576001614677565b60005b60ff16602082901c0192505050919050565b6000838302817fffffffffffffffffffffffffffffffffffffffffffffffffffffffffffffffff858709828110838203039150508084116146c957600080fd5b806000036146dc5750829004905061272b565b6000848688096000868103871696879004966002600389028118808a02820302808a02820302808a02820302808a02820302808a02820302808a02909103029181900381900460010186841190950394909402919094039290920491909117919091029150509392505050565b73ffffffffffffffffffffffffffffffffffffffff8216614799576040517fec442f0500000000000000000000000000000000000000000000000000000000815260006004820152602401610a22565b61201c60008383614081565b6040805173ffffffffffffffffffffffffffffffffffffffff8416602482015260448082018490528251808303909101815260649091019091526020810180517bffffffffffffffffffffffffffffffffffffffffffffffffffffffff167f095ea7b30000000000000000000000000000000000000000000000000000000017905261483184826148cf565b61431c576040805173ffffffffffffffffffffffffffffffffffffffff8516602482015260006044808301919091528251808303909101815260649091019091526020810180517bffffffffffffffffffffffffffffffffffffffffffffffffffffffff167f095ea7b3000000000000000000000000000000000000000000000000000000001790526148c5908590614926565b61431c8482614926565b6000806000806020600086516020880160008a5af192503d915060005190508280156128c75750811561490557806001146128c7565b505050505073ffffffffffffffffffffffffffffffffffffffff163b151590565b600080602060008451602086016000885af180614949576040513d6000823e3d81fd5b50506000513d9150811561496157806001141561497b565b73ffffffffffffffffffffffffffffffffffffffff84163b155b1561431c576040517f5274afe700000000000000000000000000000000000000000000000000000000815273ffffffffffffffffffffffffffffffffffffffff85166004820152602401610a22565b60005b838110156149e55781810151838201526020016149cd565b50506000910152565b60008151808452614a068160208601602086016149ca565b601f017fffffffffffffffffffffffffffffffffffffffffffffffffffffffffffffffe0169290920160200192915050565b60208152600061272b60208301846149ee565b73ffffffffffffffffffffffffffffffffffffffff81168114614a6d57600080fd5b50565b8035614a7b81614a4b565b919050565b60008060408385031215614a9357600080fd5b8235614a9e81614a4b565b946020939093013593505050565b7f4e487b7100000000000000000000000000000000000000000000000000000000600052604160045260246000fd5b604051610260810167ffffffffffffffff81118282101715614aff57614aff614aac565b60405290565b600082601f830112614b1657600080fd5b81356020830160008067ffffffffffffffff841115614b3757614b37614aac565b506040517fffffffffffffffffffffffffffffffffffffffffffffffffffffffffffffffe0601f85018116603f0116810181811067ffffffffffffffff82111715614b8457614b84614aac565b604052838152905080828401871015614b9c57600080fd5b838360208301376000602085830101528094505050505092915050565b600060208284031215614bcb57600080fd5b813567ffffffffffffffff811115614be257600080fd5b614bee84828501614b05565b949350505050565b600080600080600060808688031215614c0e57600080fd5b8535614c1981614a4b565b94506020860135614c2981614a4b565b935060408601359250606086013567ffffffffffffffff811115614c4c57600080fd5b8601601f81018813614c5d57600080fd5b803567ffffffffffffffff811115614c7457600080fd5b886020828401011115614c8657600080fd5b959894975092955050506020019190565b600080600060608486031215614cac57600080fd5b8335614cb781614a4b565b92506020840135614cc781614a4b565b929592945050506040919091013590565b7f4e487b7100000000000000000000000000000000000000000000000000000000600052602160045260246000fd5b6020810160068310614d42577f4e487b7100000000000000000000000000000000000000000000000000000000600052602160045260246000fd5b91905290565b815173ffffffffffffffffffffffffffffffffffffffff16815261026081016020830151614d8e602084018273ffffffffffffffffffffffffffffffffffffffff169052565b506040830151614db6604084018273ffffffffffffffffffffffffffffffffffffffff169052565b506060830151614dce606084018263ffffffff169052565b506080830151614de6608084018263ffffffff169052565b5060a0830151614dfe60a084018263ffffffff169052565b5060c0830151614e1660c084018263ffffffff169052565b5060e0830151614e2e60e084018263ffffffff169052565b50610100830151614e4861010084018263ffffffff169052565b50610120830151614e6261012084018263ffffffff169052565b50610140830151614e7c61014084018263ffffffff169052565b50610160830151614ea26101608401826fffffffffffffffffffffffffffffffff169052565b50610180830151614ec86101808401826fffffffffffffffffffffffffffffffff169052565b506101a0830151614ee16101a084018262ffffff169052565b506101c0830151614efa6101c084018262ffffff169052565b506101e0830151614f116101e084018260020b9052565b50610200830151614f2861020084018260020b9052565b50610220830151614f3f61022084018260020b9052565b50610240830151614f5961024084018263ffffffff169052565b5092915050565b600060208284031215614f7257600080fd5b813561272b81614a4b565b803563ffffffff81168114614a7b57600080fd5b6fffffffffffffffffffffffffffffffff81168114614a6d57600080fd5b8035614a7b81614f91565b803562ffffff81168114614a7b57600080fd5b8060020b8114614a6d57600080fd5b8035614a7b81614fcd565b60ff81168114614a6d57600080fd5b8035614a7b81614fe7565b60008060008060008587036102e081121561501b57600080fd5b61026081121561502a57600080fd5b50615033614adb565b61503c87614a70565b815261504a60208801614a70565b602082015261505b60408801614a70565b604082015261506c60608801614f7d565b606082015261507d60808801614f7d565b608082015261508e60a08801614f7d565b60a082015261509f60c08801614f7d565b60c08201526150b060e08801614f7d565b60e08201526150c26101008801614f7d565b6101008201526150d56101208801614f7d565b6101208201526150e86101408801614f7d565b6101408201526150fb6101608801614faf565b61016082015261510e6101808801614faf565b6101808201526151216101a08801614fba565b6101a08201526151346101c08801614fba565b6101c08201526151476101e08801614fdc565b6101e082015261515a6102008801614fdc565b61020082015261516d6102208801614fdc565b6102208201526151806102408801614f7d565b610240820152945061026086013567ffffffffffffffff8111156151a357600080fd5b6151af88828901614b05565b94505061028086013567ffffffffffffffff8111156151cd57600080fd5b6151d988828901614b05565b9350506102a086013567ffffffffffffffff8111156151f757600080fd5b61520388828901614b05565b9250506152136102c08701614ff6565b90509295509295909350565b6000806040838503121561523257600080fd5b82359150602083013567ffffffffffffffff81111561525057600080fd5b61525c85828601614b05565b9150509250929050565b6000806040838503121561527957600080fd5b823561528481614a4b565b9150602083013561529481614a4b565b809150509250929050565b600080604083850312156152b257600080fd5b82356152bd81614a4b565b91506152cb60208401614f7d565b90509250929050565b600181811c908216806152e857607f821691505b602082108103615321577f4e487b7100000000000000000000000000000000000000000000000000000000600052602260045260246000fd5b50919050565b7f4e487b7100000000000000000000000000000000000000000000000000000000600052601160045260246000fd5b80820180821115611ebb57611ebb615327565b601f821115613aad57806000526020600020601f840160051c810160208510156153905750805b601f840160051c820191505b818110156153b0576000815560010161539c565b5050505050565b815167ffffffffffffffff8111156153d1576153d1614aac565b6153e5816153df84546152d4565b84615369565b6020601f82116001811461543757600083156154015750848201515b7fffffffffffffffffffffffffffffffffffffffffffffffffffffffffffffffff600385901b1c1916600184901b1784556153b0565b6000848152602081207fffffffffffffffffffffffffffffffffffffffffffffffffffffffffffffffe08516915b828110156154855787850151825560209485019460019092019101615465565b50848210156154c157868401517fffffffffffffffffffffffffffffffffffffffffffffffffffffffffffffffff600387901b60f8161c191681555b50505050600190811b01905550565b73ffffffffffffffffffffffffffffffffffffffff83168152604060208201526000614bee60408301846149ee565b60006020828403121561551157600080fd5b5051919050565b80518015158114614a7b57600080fd5b60006020828403121561553a57600080fd5b61272b82615518565b81810381811115611ebb57611ebb615327565b63ffffffff8181168382160190811115611ebb57611ebb615327565b7f55626553746172746572204c6f636b65642000000000000000000000000000008152600082516155aa8160128501602087016149ca565b9190910160120192915050565b7f4c2d0000000000000000000000000000000000000000000000000000000000008152600082516155ef8160028501602087016149ca565b9190910160020192915050565b6fffffffffffffffffffffffffffffffff8181168382160290811690818114614f5957614f59615327565b7f4e487b7100000000000000000000000000000000000000000000000000000000600052601260045260246000fd5b60006fffffffffffffffffffffffffffffffff83168061567857615678615627565b806fffffffffffffffffffffffffffffffff84160491505092915050565b73ffffffffffffffffffffffffffffffffffffffff84168152826020820152606060408201526000610dd660608301846149ee565b8082028115828204841417611ebb57611ebb615327565b6000826156f1576156f1615627565b500490565b600063ffffffff83168061570c5761570c615627565b8063ffffffff84160691505092915050565b60006020828403121561573057600080fd5b815161272b81614a4b565b60006020828403121561574d57600080fd5b815161272b81614fcd565b60008260020b8061576b5761576b615627565b808360020b0791505092915050565b60008160020b7fffffffffffffffffffffffffffffffffffffffffffffffffffffffffff80000081036157af576157af615327565b60000392915050565b600282810b9082900b037fffffffffffffffffffffffffffffffffffffffffffffffffffffffffff8000008112627fffff82131715611ebb57611ebb615327565b805161ffff81168114614a7b57600080fd5b600080600080600080600060e0888a03121561582657600080fd5b875161583181614a4b565b602089015190975061584281614fcd565b9550615850604089016157f9565b945061585e606089016157f9565b935061586c608089016157f9565b925060a088015161587c81614fe7565b915061588a60c08901615518565b905092959891949750929550565b600281810b9083900b01627fffff81137fffffffffffffffffffffffffffffffffffffffffffffffffffffffffff80000082121715611ebb57611ebb615327565b6000602082840312156158eb57600080fd5b815161272b81614fe7565b60ff8281168282160390811115611ebb57611ebb615327565b6001815b600184111561594a5780850481111561592e5761592e615327565b600184161561593c57908102905b60019390931c928002615913565b935093915050565b60008261596157506001611ebb565b8161596e57506000611ebb565b8160018114615984576002811461598e576159aa565b6001915050611ebb565b60ff84111561599f5761599f615327565b50506001821b611ebb565b5060208310610133831016604e8410600b84101617156159cd575081810a611ebb565b6159f87fffffffffffffffffffffffffffffffffffffffffffffffffffffffffffffffff848461590f565b807fffffffffffffffffffffffffffffffffffffffffffffffffffffffffffffffff04821115615a2a57615a2a615327565b029392505050565b600061272b60ff841683615952565b60007fffffffffffffffffffffffffffffffffffffffffffffffffffffffffffffffff8203615a7257615a72615327565b5060010190565b815173ffffffffffffffffffffffffffffffffffffffff16815261016081016020830151615abf602084018273ffffffffffffffffffffffffffffffffffffffff169052565b506040830151615ad6604084018262ffffff169052565b506060830151615aeb606084018260020b9052565b506080830151615b00608084018260020b9052565b5060a083015160a083015260c083015160c083015260e083015160e0830152610100830151610100830152610120830151615b5461012084018273ffffffffffffffffffffffffffffffffffffffff169052565b5061014092830151919092015290565b60008060008060808587031215615b7a57600080fd5b84516020860151909450615b8d81614f91565b6040860151606090960151949790965092505050565b63ffffffff8281168282160390811115611ebb57611ebb615327565b600063ffffffff831680615bd557615bd5615627565b8063ffffffff8416049150509291505056fea164736f6c634300081c000a",
  "devdoc": {
    "errors": {
      "ERC20InsufficientAllowance(address,uint256,uint256)": [
        {
          "details": "Indicates a failure with the `spender`s `allowance`. Used in transfers.",
          "params": {
            "allowance": "Amount of tokens a `spender` is allowed to operate with.",
            "needed": "Minimum amount required to perform a transfer.",
            "spender": "Address that may be allowed to operate on tokens without being their owner."
          }
        }
      ],
      "ERC20InsufficientBalance(address,uint256,uint256)": [
        {
          "details": "Indicates an error related to the current `balance` of a `sender`. Used in transfers.",
          "params": {
            "balance": "Current balance for the interacting account.",
            "needed": "Minimum amount required to perform a transfer.",
            "sender": "Address whose tokens are being transferred."
          }
        }
      ],
      "ERC20InvalidApprover(address)": [
        {
          "details": "Indicates a failure with the `approver` of a token to be approved. Used in approvals.",
          "params": {
            "approver": "Address initiating an approval operation."
          }
        }
      ],
      "ERC20InvalidReceiver(address)": [
        {
          "details": "Indicates a failure with the token `receiver`. Used in transfers.",
          "params": {
            "receiver": "Address to which tokens are being transferred."
          }
        }
      ],
      "ERC20InvalidSender(address)": [
        {
          "details": "Indicates a failure with the token `sender`. Used in transfers.",
          "params": {
            "sender": "Address whose tokens are being transferred."
          }
        }
      ],
      "ERC20InvalidSpender(address)": [
        {
          "details": "Indicates a failure with the `spender` to be approved. Used in approvals.",
          "params": {
            "spender": "Address that may be allowed to operate on tokens without being their owner."
          }
        }
      ],
      "InvalidInitialization()": [
        {
          "details": "The contract is already initialized."
        }
      ],
      "NotInitializing()": [
        {
          "details": "The contract is not initializing."
        }
      ],
      "ReentrancyGuardReentrantCall()": [
        {
          "details": "Unauthorized reentrant call."
        }
      ],
      "SafeERC20FailedOperation(address)": [
        {
          "details": "An operation with an ERC-20 token failed."
        }
      ]
    },
    "events": {
      "Approval(address,address,uint256)": {
        "details": "Emitted when the allowance of a `spender` for an `owner` is set by a call to {approve}. `value` is the new allowance."
      },
      "Initialized(uint64)": {
        "details": "Triggered when the contract has been initialized or reinitialized."
      },
      "Transfer(address,address,uint256)": {
        "details": "Emitted when `value` tokens are moved from one account (`from`) to another (`to`). Note that `value` may be zero."
      }
    },
    "kind": "dev",
    "methods": {
      "allowance(address,address)": {
        "details": "See {IERC20-allowance}."
      },
      "balanceOf(address)": {
        "details": "See {IERC20-balanceOf}."
      },
      "constructor": {
        "custom:oz-upgrades-unsafe-allow": "constructor"
      },
      "decimals()": {
        "details": "Returns the number of decimals used to get its user representation. For example, if `decimals` equals `2`, a balance of `505` tokens should be displayed to a user as `5.05` (`505 / 10 ** 2`). Tokens usually opt for a value of 18, imitating the relationship between Ether and Wei. This is the default value returned by this function, unless it's overridden. NOTE: This information is only used for _display_ purposes: it in no way affects any of the arithmetic of the contract, including {IERC20-balanceOf} and {IERC20-transfer}."
      },
      "name()": {
        "details": "Returns the name of the token."
      },
      "symbol()": {
        "details": "Returns the symbol of the token, usually a shorter version of the name."
      },
      "totalSupply()": {
        "details": "See {IERC20-totalSupply}."
      }
    },
    "version": 1
  },
  "userdoc": {
    "errors": {
      "InvalidTick()": [
        {
          "notice": "Thrown when the tick passed to #getSqrtRatioAtTick is not between MIN_TICK and MAX_TICK"
        }
      ]
    },
    "kind": "user",
    "methods": {},
    "version": 1
  },
  "storageLayout": {
    "storage": [
      {
        "astId": 2360,
        "contract": "contracts/UbeStarterLaunchpadV1.sol:UbeStarterLaunchpadV1",
        "label": "_status",
        "offset": 0,
        "slot": "0",
        "type": "t_uint256"
      },
      {
        "astId": 6666,
        "contract": "contracts/UbeStarterLaunchpadV1.sol:UbeStarterLaunchpadV1",
        "label": "factory",
        "offset": 0,
        "slot": "1",
        "type": "t_address"
      },
      {
        "astId": 6669,
        "contract": "contracts/UbeStarterLaunchpadV1.sol:UbeStarterLaunchpadV1",
        "label": "params",
        "offset": 0,
        "slot": "2",
        "type": "t_struct(LaunchpadParams)8421_storage"
      },
      {
        "astId": 6671,
        "contract": "contracts/UbeStarterLaunchpadV1.sol:UbeStarterLaunchpadV1",
        "label": "infoCID",
        "offset": 0,
        "slot": "8",
        "type": "t_string_storage"
      },
      {
        "astId": 6673,
        "contract": "contracts/UbeStarterLaunchpadV1.sol:UbeStarterLaunchpadV1",
        "label": "participantCount",
        "offset": 0,
        "slot": "9",
        "type": "t_uint256"
      },
      {
        "astId": 6675,
        "contract": "contracts/UbeStarterLaunchpadV1.sol:UbeStarterLaunchpadV1",
        "label": "buyCount",
        "offset": 0,
        "slot": "10",
        "type": "t_uint256"
      },
      {
        "astId": 6677,
        "contract": "contracts/UbeStarterLaunchpadV1.sol:UbeStarterLaunchpadV1",
        "label": "totalRaisedAsQuote",
        "offset": 0,
        "slot": "11",
        "type": "t_uint256"
      },
      {
        "astId": 6679,
        "contract": "contracts/UbeStarterLaunchpadV1.sol:UbeStarterLaunchpadV1",
        "label": "liquidityTokenId",
        "offset": 0,
        "slot": "12",
        "type": "t_uint256"
      },
      {
        "astId": 6683,
        "contract": "contracts/UbeStarterLaunchpadV1.sol:UbeStarterLaunchpadV1",
        "label": "participantToQuoteAmount",
        "offset": 0,
        "slot": "13",
        "type": "t_mapping(t_address,t_uint256)"
      },
      {
        "astId": 6687,
        "contract": "contracts/UbeStarterLaunchpadV1.sol:UbeStarterLaunchpadV1",
        "label": "releasedAmounts",
        "offset": 0,
        "slot": "14",
        "type": "t_mapping(t_address,t_uint256)"
      },
      {
        "astId": 6689,
        "contract": "contracts/UbeStarterLaunchpadV1.sol:UbeStarterLaunchpadV1",
        "label": "totalReleased",
        "offset": 0,
        "slot": "15",
        "type": "t_uint256"
      },
      {
        "astId": 6691,
        "contract": "contracts/UbeStarterLaunchpadV1.sol:UbeStarterLaunchpadV1",
        "label": "cancelReason",
        "offset": 0,
        "slot": "16",
        "type": "t_string_storage"
      },
      {
        "astId": 6721,
        "contract": "contracts/UbeStarterLaunchpadV1.sol:UbeStarterLaunchpadV1",
        "label": "pool",
        "offset": 0,
        "slot": "17",
        "type": "t_contract(IUniswapV3Pool)8842"
      },
      {
        "astId": 6723,
        "contract": "contracts/UbeStarterLaunchpadV1.sol:UbeStarterLaunchpadV1",
        "label": "tokenDecimals",
        "offset": 20,
        "slot": "17",
        "type": "t_uint8"
      },
      {
        "astId": 6726,
        "contract": "contracts/UbeStarterLaunchpadV1.sol:UbeStarterLaunchpadV1",
        "label": "isCanceled",
        "offset": 21,
        "slot": "17",
        "type": "t_bool"
      }
    ],
    "types": {
      "t_address": {
        "encoding": "inplace",
        "label": "address",
        "numberOfBytes": "20"
      },
      "t_bool": {
        "encoding": "inplace",
        "label": "bool",
        "numberOfBytes": "1"
      },
      "t_contract(IUniswapV3Pool)8842": {
        "encoding": "inplace",
        "label": "contract IUniswapV3Pool",
        "numberOfBytes": "20"
      },
      "t_int24": {
        "encoding": "inplace",
        "label": "int24",
        "numberOfBytes": "3"
      },
      "t_mapping(t_address,t_uint256)": {
        "encoding": "mapping",
        "key": "t_address",
        "label": "mapping(address => uint256)",
        "numberOfBytes": "32",
        "value": "t_uint256"
      },
      "t_string_storage": {
        "encoding": "bytes",
        "label": "string",
        "numberOfBytes": "32"
      },
      "t_struct(LaunchpadParams)8421_storage": {
        "encoding": "inplace",
        "label": "struct IInitializableImplementation.LaunchpadParams",
        "members": [
          {
            "astId": 8384,
            "contract": "contracts/UbeStarterLaunchpadV1.sol:UbeStarterLaunchpadV1",
            "label": "token",
            "offset": 0,
            "slot": "0",
            "type": "t_address"
          },
          {
            "astId": 8386,
            "contract": "contracts/UbeStarterLaunchpadV1.sol:UbeStarterLaunchpadV1",
            "label": "quoteToken",
            "offset": 0,
            "slot": "1",
            "type": "t_address"
          },
          {
            "astId": 8388,
            "contract": "contracts/UbeStarterLaunchpadV1.sol:UbeStarterLaunchpadV1",
            "label": "owner",
            "offset": 0,
            "slot": "2",
            "type": "t_address"
          },
          {
            "astId": 8390,
            "contract": "contracts/UbeStarterLaunchpadV1.sol:UbeStarterLaunchpadV1",
            "label": "startDate",
            "offset": 20,
            "slot": "2",
            "type": "t_uint32"
          },
          {
            "astId": 8392,
            "contract": "contracts/UbeStarterLaunchpadV1.sol:UbeStarterLaunchpadV1",
            "label": "endDate",
            "offset": 24,
            "slot": "2",
            "type": "t_uint32"
          },
          {
            "astId": 8394,
            "contract": "contracts/UbeStarterLaunchpadV1.sol:UbeStarterLaunchpadV1",
            "label": "exchangeRate",
            "offset": 28,
            "slot": "2",
            "type": "t_uint32"
          },
          {
            "astId": 8396,
            "contract": "contracts/UbeStarterLaunchpadV1.sol:UbeStarterLaunchpadV1",
            "label": "releaseDuration",
            "offset": 0,
            "slot": "3",
            "type": "t_uint32"
          },
          {
            "astId": 8398,
            "contract": "contracts/UbeStarterLaunchpadV1.sol:UbeStarterLaunchpadV1",
            "label": "releaseInterval",
            "offset": 4,
            "slot": "3",
            "type": "t_uint32"
          },
          {
            "astId": 8400,
            "contract": "contracts/UbeStarterLaunchpadV1.sol:UbeStarterLaunchpadV1",
            "label": "cliffDuration",
            "offset": 8,
            "slot": "3",
            "type": "t_uint32"
          },
          {
            "astId": 8402,
            "contract": "contracts/UbeStarterLaunchpadV1.sol:UbeStarterLaunchpadV1",
            "label": "initialReleaseRate",
            "offset": 12,
            "slot": "3",
            "type": "t_uint32"
          },
          {
            "astId": 8404,
            "contract": "contracts/UbeStarterLaunchpadV1.sol:UbeStarterLaunchpadV1",
            "label": "cliffReleaseRate",
            "offset": 16,
            "slot": "3",
            "type": "t_uint32"
          },
          {
            "astId": 8406,
            "contract": "contracts/UbeStarterLaunchpadV1.sol:UbeStarterLaunchpadV1",
            "label": "hardCapAsQuote",
            "offset": 0,
            "slot": "4",
            "type": "t_uint128"
          },
          {
            "astId": 8408,
            "contract": "contracts/UbeStarterLaunchpadV1.sol:UbeStarterLaunchpadV1",
            "label": "softCapAsQuote",
            "offset": 16,
            "slot": "4",
            "type": "t_uint128"
          },
          {
            "astId": 8410,
            "contract": "contracts/UbeStarterLaunchpadV1.sol:UbeStarterLaunchpadV1",
            "label": "liquidityRate",
            "offset": 0,
            "slot": "5",
            "type": "t_uint24"
          },
          {
            "astId": 8412,
            "contract": "contracts/UbeStarterLaunchpadV1.sol:UbeStarterLaunchpadV1",
            "label": "liquidityFee",
            "offset": 3,
            "slot": "5",
            "type": "t_uint24"
          },
          {
            "astId": 8414,
            "contract": "contracts/UbeStarterLaunchpadV1.sol:UbeStarterLaunchpadV1",
            "label": "priceTick",
            "offset": 6,
            "slot": "5",
            "type": "t_int24"
          },
          {
            "astId": 8416,
            "contract": "contracts/UbeStarterLaunchpadV1.sol:UbeStarterLaunchpadV1",
            "label": "tickLower",
            "offset": 9,
            "slot": "5",
            "type": "t_int24"
          },
          {
            "astId": 8418,
            "contract": "contracts/UbeStarterLaunchpadV1.sol:UbeStarterLaunchpadV1",
            "label": "tickUpper",
            "offset": 12,
            "slot": "5",
            "type": "t_int24"
          },
          {
            "astId": 8420,
            "contract": "contracts/UbeStarterLaunchpadV1.sol:UbeStarterLaunchpadV1",
            "label": "lockDuration",
            "offset": 15,
            "slot": "5",
            "type": "t_uint32"
          }
        ],
        "numberOfBytes": "192"
      },
      "t_uint128": {
        "encoding": "inplace",
        "label": "uint128",
        "numberOfBytes": "16"
      },
      "t_uint24": {
        "encoding": "inplace",
        "label": "uint24",
        "numberOfBytes": "3"
      },
      "t_uint256": {
        "encoding": "inplace",
        "label": "uint256",
        "numberOfBytes": "32"
      },
      "t_uint32": {
        "encoding": "inplace",
        "label": "uint32",
        "numberOfBytes": "4"
      },
      "t_uint8": {
        "encoding": "inplace",
        "label": "uint8",
        "numberOfBytes": "1"
      }
    }
  }
}