{
  "address": "0x5DC48e2186979B92E46a980227E7feb16fa42810",
  "abi": [
    {
      "inputs": [
        {
          "internalType": "address",
          "name": "initialOwner",
          "type": "address"
        },
        {
          "internalType": "address",
          "name": "feeTokenAddress",
          "type": "address"
        }
      ],
      "stateMutability": "nonpayable",
      "type": "constructor"
    },
    {
      "inputs": [],
      "name": "FailedDeployment",
      "type": "error"
    },
    {
      "inputs": [
        {
          "internalType": "uint256",
          "name": "balance",
          "type": "uint256"
        },
        {
          "internalType": "uint256",
          "name": "needed",
          "type": "uint256"
        }
      ],
      "name": "InsufficientBalance",
      "type": "error"
    },
    {
      "inputs": [
        {
          "internalType": "address",
          "name": "owner",
          "type": "address"
        }
      ],
      "name": "OwnableInvalidOwner",
      "type": "error"
    },
    {
      "inputs": [
        {
          "internalType": "address",
          "name": "account",
          "type": "address"
        }
      ],
      "name": "OwnableUnauthorizedAccount",
      "type": "error"
    },
    {
      "inputs": [
        {
          "internalType": "address",
          "name": "token",
          "type": "address"
        }
      ],
      "name": "SafeERC20FailedOperation",
      "type": "error"
    },
    {
      "anonymous": false,
      "inputs": [
        {
          "indexed": true,
          "internalType": "bytes32",
          "name": "hash",
          "type": "bytes32"
        },
        {
          "indexed": false,
          "internalType": "string",
          "name": "message",
          "type": "string"
        }
      ],
      "name": "DisclaimerMessageUpdated",
      "type": "event"
    },
    {
      "anonymous": false,
      "inputs": [
        {
          "indexed": true,
          "internalType": "address",
          "name": "implementation",
          "type": "address"
        },
        {
          "indexed": false,
          "internalType": "uint256",
          "name": "deploymentFee",
          "type": "uint256"
        }
      ],
      "name": "ImplementationUpdated",
      "type": "event"
    },
    {
      "anonymous": false,
      "inputs": [
        {
          "indexed": true,
          "internalType": "address",
          "name": "launchpadAddress",
          "type": "address"
        },
        {
          "indexed": true,
          "internalType": "address",
          "name": "implementation",
          "type": "address"
        },
        {
          "indexed": false,
          "internalType": "address",
          "name": "creator",
          "type": "address"
        },
        {
          "components": [
            {
              "internalType": "address",
              "name": "token",
              "type": "address"
            },
            {
              "internalType": "address",
              "name": "quoteToken",
              "type": "address"
            },
            {
              "internalType": "address",
              "name": "owner",
              "type": "address"
            },
            {
              "internalType": "uint32",
              "name": "startDate",
              "type": "uint32"
            },
            {
              "internalType": "uint32",
              "name": "endDate",
              "type": "uint32"
            },
            {
              "internalType": "uint32",
              "name": "exchangeRate",
              "type": "uint32"
            },
            {
              "internalType": "uint32",
              "name": "releaseDuration",
              "type": "uint32"
            },
            {
              "internalType": "uint32",
              "name": "releaseInterval",
              "type": "uint32"
            },
            {
              "internalType": "uint32",
              "name": "cliffDuration",
              "type": "uint32"
            },
            {
              "internalType": "uint32",
              "name": "initialReleaseRate",
              "type": "uint32"
            },
            {
              "internalType": "uint32",
              "name": "cliffReleaseRate",
              "type": "uint32"
            },
            {
              "internalType": "uint128",
              "name": "hardCapAsQuote",
              "type": "uint128"
            },
            {
              "internalType": "uint128",
              "name": "softCapAsQuote",
              "type": "uint128"
            },
            {
              "internalType": "uint24",
              "name": "liquidityRate",
              "type": "uint24"
            },
            {
              "internalType": "uint24",
              "name": "liquidityFee",
              "type": "uint24"
            },
            {
              "internalType": "int24",
              "name": "priceTick",
              "type": "int24"
            },
            {
              "internalType": "int24",
              "name": "tickLower",
              "type": "int24"
            },
            {
              "internalType": "int24",
              "name": "tickUpper",
              "type": "int24"
            },
            {
              "internalType": "uint32",
              "name": "lockDuration",
              "type": "uint32"
            }
          ],
          "indexed": false,
          "internalType": "struct IInitializableImplementation.LaunchpadParams",
          "name": "params",
          "type": "tuple"
        },
        {
          "indexed": false,
          "internalType": "bytes",
          "name": "extraParams",
          "type": "bytes"
        },
        {
          "indexed": false,
          "internalType": "string",
          "name": "infoCID",
          "type": "string"
        },
        {
          "indexed": false,
          "internalType": "address",
          "name": "verifier",
          "type": "address"
        },
        {
          "indexed": false,
          "internalType": "bytes32",
          "name": "creatorDisclaimerHash",
          "type": "bytes32"
        },
        {
          "indexed": false,
          "internalType": "uint256",
          "name": "deploymentFee",
          "type": "uint256"
        },
        {
          "indexed": false,
          "internalType": "bytes",
          "name": "creatorDisclaimerSignature",
          "type": "bytes"
        },
        {
          "indexed": false,
          "internalType": "bytes",
          "name": "verifierSignature",
          "type": "bytes"
        }
      ],
      "name": "LaunchpadDeployed",
      "type": "event"
    },
    {
      "anonymous": false,
      "inputs": [
        {
          "indexed": true,
          "internalType": "address",
          "name": "previousOwner",
          "type": "address"
        },
        {
          "indexed": true,
          "internalType": "address",
          "name": "newOwner",
          "type": "address"
        }
      ],
      "name": "OwnershipTransferred",
      "type": "event"
    },
    {
      "anonymous": false,
      "inputs": [
        {
          "indexed": true,
          "internalType": "address",
          "name": "quoteToken",
          "type": "address"
        },
        {
          "indexed": false,
          "internalType": "uint128",
          "name": "minSoftCap",
          "type": "uint128"
        },
        {
          "indexed": false,
          "internalType": "uint128",
          "name": "maxSoftCap",
          "type": "uint128"
        }
      ],
      "name": "QuoteTokenUpdated",
      "type": "event"
    },
    {
      "anonymous": false,
      "inputs": [
        {
          "indexed": true,
          "internalType": "address",
          "name": "verifier",
          "type": "address"
        },
        {
          "indexed": false,
          "internalType": "bool",
          "name": "status",
          "type": "bool"
        }
      ],
      "name": "VerifierUpdated",
      "type": "event"
    },
    {
      "inputs": [
        {
          "internalType": "address",
          "name": "launchpad",
          "type": "address"
        },
        {
          "internalType": "string",
          "name": "reason",
          "type": "string"
        }
      ],
      "name": "cancelLaunchpad",
      "outputs": [],
      "stateMutability": "nonpayable",
      "type": "function"
    },
    {
      "inputs": [
        {
          "internalType": "address",
          "name": "implementation",
          "type": "address"
        },
        {
          "components": [
            {
              "internalType": "address",
              "name": "token",
              "type": "address"
            },
            {
              "internalType": "address",
              "name": "quoteToken",
              "type": "address"
            },
            {
              "internalType": "address",
              "name": "owner",
              "type": "address"
            },
            {
              "internalType": "uint32",
              "name": "startDate",
              "type": "uint32"
            },
            {
              "internalType": "uint32",
              "name": "endDate",
              "type": "uint32"
            },
            {
              "internalType": "uint32",
              "name": "exchangeRate",
              "type": "uint32"
            },
            {
              "internalType": "uint32",
              "name": "releaseDuration",
              "type": "uint32"
            },
            {
              "internalType": "uint32",
              "name": "releaseInterval",
              "type": "uint32"
            },
            {
              "internalType": "uint32",
              "name": "cliffDuration",
              "type": "uint32"
            },
            {
              "internalType": "uint32",
              "name": "initialReleaseRate",
              "type": "uint32"
            },
            {
              "internalType": "uint32",
              "name": "cliffReleaseRate",
              "type": "uint32"
            },
            {
              "internalType": "uint128",
              "name": "hardCapAsQuote",
              "type": "uint128"
            },
            {
              "internalType": "uint128",
              "name": "softCapAsQuote",
              "type": "uint128"
            },
            {
              "internalType": "uint24",
              "name": "liquidityRate",
              "type": "uint24"
            },
            {
              "internalType": "uint24",
              "name": "liquidityFee",
              "type": "uint24"
            },
            {
              "internalType": "int24",
              "name": "priceTick",
              "type": "int24"
            },
            {
              "internalType": "int24",
              "name": "tickLower",
              "type": "int24"
            },
            {
              "internalType": "int24",
              "name": "tickUpper",
              "type": "int24"
            },
            {
              "internalType": "uint32",
              "name": "lockDuration",
              "type": "uint32"
            }
          ],
          "internalType": "struct IInitializableImplementation.LaunchpadParams",
          "name": "params",
          "type": "tuple"
        },
        {
          "internalType": "bytes",
          "name": "extraParams",
          "type": "bytes"
        },
        {
          "internalType": "string",
          "name": "infoCID",
          "type": "string"
        },
        {
          "internalType": "bytes32",
          "name": "creatorDisclaimerHash",
          "type": "bytes32"
        },
        {
          "internalType": "bytes",
          "name": "creatorDisclaimerSignature",
          "type": "bytes"
        },
        {
          "internalType": "bytes",
          "name": "verifierSignature",
          "type": "bytes"
        }
      ],
      "name": "deployLaunchpad",
      "outputs": [],
      "stateMutability": "nonpayable",
      "type": "function"
    },
    {
      "inputs": [
        {
          "internalType": "address",
          "name": "",
          "type": "address"
        }
      ],
      "name": "deploymentInfos",
      "outputs": [
        {
          "internalType": "address",
          "name": "creator",
          "type": "address"
        },
        {
          "internalType": "uint32",
          "name": "timestamp",
          "type": "uint32"
        },
        {
          "internalType": "uint32",
          "name": "blocknumber",
          "type": "uint32"
        }
      ],
      "stateMutability": "view",
      "type": "function"
    },
    {
      "inputs": [
        {
          "internalType": "bytes32",
          "name": "",
          "type": "bytes32"
        }
      ],
      "name": "disclaimerMessages",
      "outputs": [
        {
          "internalType": "string",
          "name": "",
          "type": "string"
        }
      ],
      "stateMutability": "view",
      "type": "function"
    },
    {
      "inputs": [],
      "name": "feeToken",
      "outputs": [
        {
          "internalType": "address",
          "name": "",
          "type": "address"
        }
      ],
      "stateMutability": "view",
      "type": "function"
    },
    {
      "inputs": [
        {
          "internalType": "uint256",
          "name": "index",
          "type": "uint256"
        }
      ],
      "name": "getLaunchpad",
      "outputs": [
        {
          "internalType": "address",
          "name": "",
          "type": "address"
        }
      ],
      "stateMutability": "view",
      "type": "function"
    },
    {
      "inputs": [],
      "name": "getLaunchpadsLength",
      "outputs": [
        {
          "internalType": "uint256",
          "name": "",
          "type": "uint256"
        }
      ],
      "stateMutability": "view",
      "type": "function"
    },
    {
      "inputs": [
        {
          "internalType": "address",
          "name": "",
          "type": "address"
        }
      ],
      "name": "implementations",
      "outputs": [
        {
          "internalType": "uint256",
          "name": "",
          "type": "uint256"
        }
      ],
      "stateMutability": "view",
      "type": "function"
    },
    {
      "inputs": [],
      "name": "owner",
      "outputs": [
        {
          "internalType": "address",
          "name": "",
          "type": "address"
        }
      ],
      "stateMutability": "view",
      "type": "function"
    },
    {
      "inputs": [
        {
          "internalType": "address",
          "name": "",
          "type": "address"
        }
      ],
      "name": "quoteTokens",
      "outputs": [
        {
          "internalType": "uint128",
          "name": "minSoftCap",
          "type": "uint128"
        },
        {
          "internalType": "uint128",
          "name": "maxSoftCap",
          "type": "uint128"
        }
      ],
      "stateMutability": "view",
      "type": "function"
    },
    {
      "inputs": [],
      "name": "renounceOwnership",
      "outputs": [],
      "stateMutability": "nonpayable",
      "type": "function"
    },
    {
      "inputs": [
        {
          "internalType": "address",
          "name": "newOwner",
          "type": "address"
        }
      ],
      "name": "transferOwnership",
      "outputs": [],
      "stateMutability": "nonpayable",
      "type": "function"
    },
    {
      "inputs": [
        {
          "internalType": "bytes32",
          "name": "hash",
          "type": "bytes32"
        },
        {
          "internalType": "string",
          "name": "message",
          "type": "string"
        }
      ],
      "name": "updateDisclaimerMessage",
      "outputs": [],
      "stateMutability": "nonpayable",
      "type": "function"
    },
    {
      "inputs": [
        {
          "internalType": "address",
          "name": "implementation",
          "type": "address"
        },
        {
          "internalType": "uint256",
          "name": "deploymentFee",
          "type": "uint256"
        }
      ],
      "name": "updateImplementation",
      "outputs": [],
      "stateMutability": "nonpayable",
      "type": "function"
    },
    {
      "inputs": [
        {
          "internalType": "address",
          "name": "quoteToken",
          "type": "address"
        },
        {
          "internalType": "uint128",
          "name": "minAmount",
          "type": "uint128"
        },
        {
          "internalType": "uint128",
          "name": "maxAmount",
          "type": "uint128"
        }
      ],
      "name": "updateQuoteToken",
      "outputs": [],
      "stateMutability": "nonpayable",
      "type": "function"
    },
    {
      "inputs": [
        {
          "internalType": "address",
          "name": "verifier",
          "type": "address"
        },
        {
          "internalType": "bool",
          "name": "status",
          "type": "bool"
        }
      ],
      "name": "updateVerifier",
      "outputs": [],
      "stateMutability": "nonpayable",
      "type": "function"
    },
    {
      "inputs": [
        {
          "internalType": "address",
          "name": "",
          "type": "address"
        }
      ],
      "name": "verifiers",
      "outputs": [
        {
          "internalType": "bool",
          "name": "",
          "type": "bool"
        }
      ],
      "stateMutability": "view",
      "type": "function"
    }
  ],
  "transactionHash": "0x3d6b0c41c2de39a56e45b47813184b82fdff22b7b103f031a0e7cda8c39af4d2",
  "args": [
    "0x2c2bc76B97BCe84A5a9c6e2835AB13306B964cf1",
    "0x71e26d0E519D14591b9dE9a0fE9513A398101490"
  ],
  "numDeployments": 1,
  "solcInputHash": "66290dfcb6bcbcdac590fe58a8f85f45",
  "bytecode": "0x60a060405234801561001057600080fd5b5060405161281938038061281983398101604081905261002f916100e6565b816001600160a01b03811661005e57604051631e4fbdf760e01b81526000600482015260240160405180910390fd5b6100678161007a565b506001600160a01b031660805250610119565b600080546001600160a01b038381166001600160a01b0319831681178455604051919092169283917f8be0079c531659141344cd1fd0a4f28419497f9722a3daafe3b4186f6b6457e09190a35050565b80516001600160a01b03811681146100e157600080fd5b919050565b600080604083850312156100f957600080fd5b610102836100ca565b9150610110602084016100ca565b90509250929050565b6080516126de61013b600039600081816102100152610af701526126de6000f3fe608060405234801561001057600080fd5b506004361061011b5760003560e01c8063715018a6116100b2578063ce1d6a6a11610081578063ec14f14311610066578063ec14f14314610391578063f2fde38b146103a4578063f79eb32c146103b757600080fd5b8063ce1d6a6a146102d0578063dad017cc146102e357600080fd5b8063715018a6146102785780638da5cb5b14610280578063a3bd4a6b1461029e578063aa9ba76e146102be57600080fd5b80635455bd66116100ee5780635455bd66146101f8578063647846a51461020b5780636c824487146102325780636d639f7c1461026557600080fd5b8063032cc2cd1461012057806316d8e212146101355780634158787f1461014857806345aab48a14610185575b600080fd5b61013361012e366004611d6b565b6103d7565b005b610133610143366004611e5d565b610bb1565b61015b610156366004611ea0565b610d29565b60405173ffffffffffffffffffffffffffffffffffffffff90911681526020015b60405180910390f35b6101cf610193366004611eb9565b6001602052600090815260409020546fffffffffffffffffffffffffffffffff8082169170010000000000000000000000000000000090041682565b604080516fffffffffffffffffffffffffffffffff93841681529290911660208301520161017c565b610133610206366004611edb565b610d66565b61015b7f000000000000000000000000000000000000000000000000000000000000000081565b610255610240366004611eb9565b60046020526000908152604090205460ff1681565b604051901515815260200161017c565b610133610273366004611f29565b610e84565b610133610ef2565b60005473ffffffffffffffffffffffffffffffffffffffff1661015b565b6102b16102ac366004611ea0565b610f06565b60405161017c9190611fc1565b6005545b60405190815260200161017c565b6101336102de366004611fd4565b610fa0565b6103586102f1366004611eb9565b60066020526000908152604090205473ffffffffffffffffffffffffffffffffffffffff81169063ffffffff740100000000000000000000000000000000000000008204811691780100000000000000000000000000000000000000000000000090041683565b6040805173ffffffffffffffffffffffffffffffffffffffff909416845263ffffffff928316602085015291169082015260600161017c565b61013361039f366004612005565b61106c565b6101336103b2366004611eb9565b6110f7565b6102c26103c5366004611eb9565b60036020526000908152604090205481565b60208087015173ffffffffffffffffffffffffffffffffffffffff166000908152600182526040908190208151808301909252546fffffffffffffffffffffffffffffffff808216835270010000000000000000000000000000000090910416918101829052906104a9576040517f08c379a000000000000000000000000000000000000000000000000000000000815260206004820152601360248201527f696e76616c69642071756f746520746f6b656e0000000000000000000000000060448201526064015b60405180910390fd5b60008761018001516fffffffffffffffffffffffffffffffff161180156104fe57508661016001516fffffffffffffffffffffffffffffffff168761018001516fffffffffffffffffffffffffffffffff1611155b610564576040517f08c379a000000000000000000000000000000000000000000000000000000000815260206004820152600f60248201527f696e76616c69642068617264436170000000000000000000000000000000000060448201526064016104a0565b80600001516fffffffffffffffffffffffffffffffff168761018001516fffffffffffffffffffffffffffffffff16101580156105ce575080602001516fffffffffffffffffffffffffffffffff168761018001516fffffffffffffffffffffffffffffffff1611155b610634576040517f08c379a000000000000000000000000000000000000000000000000000000000815260206004820152600f60248201527f696e76616c696420736f6674436170000000000000000000000000000000000060448201526064016104a0565b5060006106a361069b88888860405160200161065293929190612252565b604051602081830303815290604052805190602001207f19457468657265756d205369676e6564204d6573736167653a0a3332000000006000908152601c91909152603c902090565b83868661115b565b73ffffffffffffffffffffffffffffffffffffffff891660009081526003602052604090205490915080610733576040517f08c379a000000000000000000000000000000000000000000000000000000000815260206004820152601660248201527f696e76616c696420696d706c656d656e746174696f6e0000000000000000000060448201526064016104a0565b600061073e8a61141b565b905060008960000151905060008173ffffffffffffffffffffffffffffffffffffffff1663313ce5676040518163ffffffff1660e01b8152600401602060405180830381865afa158015610796573d6000803e3d6000fd5b505050506040513d601f19601f820116820180604052508101906107ba9190612292565b905060008160ff1611610829576040517f08c379a000000000000000000000000000000000000000000000000000000000815260206004820152601660248201527f696e76616c696420746f6b656e20646563696d616c730000000000000000000060448201526064016104a0565b60008273ffffffffffffffffffffffffffffffffffffffff166395d89b416040518163ffffffff1660e01b8152600401600060405180830381865afa158015610876573d6000803e3d6000fd5b505050506040513d6000823e601f3d9081017fffffffffffffffffffffffffffffffffffffffffffffffffffffffffffffffe01682016040526108bc91908101906122b5565b90506000815111610929576040517f08c379a000000000000000000000000000000000000000000000000000000000815260206004820152601460248201527f696e76616c696420746f6b656e2073796d626f6c00000000000000000000000060448201526064016104a0565b60008473ffffffffffffffffffffffffffffffffffffffff16637d0fe7bf8e8e8e86886040518663ffffffff1660e01b815260040161096c95949392919061232c565b6020604051808303816000875af115801561098b573d6000803e3d6000fd5b505050506040513d601f19601f820116820180604052508101906109af919061238e565b60058054600181019091557f036b6384b5eca791c62761152d0c79bb0604c104a5fb6f4eb0703f3154bb3db001805473ffffffffffffffffffffffffffffffffffffffff8089167fffffffffffffffffffffffff00000000000000000000000000000000000000009092168217909255604080516060810182523380825263ffffffff42811660208481019182524383168587019081526000978852600690915294909520925183549551945182167801000000000000000000000000000000000000000000000000027fffffffff00000000ffffffffffffffffffffffffffffffffffffffffffffffff9590921674010000000000000000000000000000000000000000027fffffffffffffffff000000000000000000000000000000000000000000000000909616961695909517939093179190911692909217909155909150610b20907f00000000000000000000000000000000000000000000000000000000000000009061dead8961142e565b610b2c8433878461142e565b505050508973ffffffffffffffffffffffffffffffffffffffff168173ffffffffffffffffffffffffffffffffffffffff167f9be046d1e00bea178e47323c7ce4674b89f17880c280093f3d1faa76b1c4d4f5338c8c8c898d8a8e8e604051610b9d999897969594939291906123a7565b60405180910390a350505050505050505050565b610bb96114c9565b6fffffffffffffffffffffffffffffffff8216158015610be957506fffffffffffffffffffffffffffffffff8116155b80610c175750806fffffffffffffffffffffffffffffffff16826fffffffffffffffffffffffffffffffff16105b610c7d576040517f08c379a000000000000000000000000000000000000000000000000000000000815260206004820152600f60248201527f696e76616c696420616d6f756e7473000000000000000000000000000000000060448201526064016104a0565b6040805180820182526fffffffffffffffffffffffffffffffff848116808352848216602080850182815273ffffffffffffffffffffffffffffffffffffffff8a16600081815260018452889020965191518616700100000000000000000000000000000000029190951617909455845191825292810192909252917f678e1a08777d27ce88eae93620a1418aaf28a8a2b8f2a308d96d6dfdc1a467be910160405180910390a2505050565b600060058281548110610d3e57610d3e61245e565b60009182526020909120015473ffffffffffffffffffffffffffffffffffffffff1692915050565b610d6e6114c9565b73ffffffffffffffffffffffffffffffffffffffff82811660009081526006602052604090205416610dfc576040517f08c379a000000000000000000000000000000000000000000000000000000000815260206004820152601960248201527f696e76616c6964206c61756e636870616420616464726573730000000000000060448201526064016104a0565b6040517f0b4f3f3d00000000000000000000000000000000000000000000000000000000815273ffffffffffffffffffffffffffffffffffffffff831690630b4f3f3d90610e4e908490600401611fc1565b600060405180830381600087803b158015610e6857600080fd5b505af1158015610e7c573d6000803e3d6000fd5b505050505050565b610e8c6114c9565b73ffffffffffffffffffffffffffffffffffffffff821660008181526003602052604090819020839055517f5678af47993f4856157dd819bee3183b87c10ee1b3575a5128fe25896c073a2890610ee69084815260200190565b60405180910390a25050565b610efa6114c9565b610f04600061151c565b565b60026020526000908152604090208054610f1f9061248d565b80601f0160208091040260200160405190810160405280929190818152602001828054610f4b9061248d565b8015610f985780601f10610f6d57610100808354040283529160200191610f98565b820191906000526020600020905b815481529060010190602001808311610f7b57829003601f168201915b505050505081565b610fa86114c9565b80511580610fbd575081610fbb82611591565b145b611023576040517f08c379a000000000000000000000000000000000000000000000000000000000815260206004820152600c60248201527f696e76616c69642068617368000000000000000000000000000000000000000060448201526064016104a0565b600082815260026020526040902061103b828261252e565b50817f3df70c316b17fde3e051fb85ee5d20af78d0a510db3c37bfc67947f614d497e382604051610ee69190611fc1565b6110746114c9565b73ffffffffffffffffffffffffffffffffffffffff821660008181526004602090815260409182902080547fffffffffffffffffffffffffffffffffffffffffffffffffffffffffffffff001685151590811790915591519182527fba5f7031ad83095931ee4b5138591db2dc3cfc56178367622fa4b05c2efad2319101610ee6565b6110ff6114c9565b73ffffffffffffffffffffffffffffffffffffffff811661114f576040517f1e4fbdf7000000000000000000000000000000000000000000000000000000008152600060048201526024016104a0565b6111588161151c565b50565b600082815260026020526040812080548291906111779061248d565b9050116111e0576040517f08c379a000000000000000000000000000000000000000000000000000000000815260206004820152601260248201527f696e76616c696420646973636c61696d6572000000000000000000000000000060448201526064016104a0565b6000806111ed85856115cc565b509092509050600081600381111561120757611207612647565b1461126e576040517f08c379a000000000000000000000000000000000000000000000000000000000815260206004820152600e60248201527f65637265636f766572206572723100000000000000000000000000000000000060448201526064016104a0565b73ffffffffffffffffffffffffffffffffffffffff821633146112ed576040517f08c379a000000000000000000000000000000000000000000000000000000000815260206004820152601960248201527f696e76616c69642063726561746f72207369676e61747572650000000000000060448201526064016104a0565b6000806112fa89896115cc565b509092509050600081600381111561131457611314612647565b1461137b576040517f08c379a000000000000000000000000000000000000000000000000000000000815260206004820152600e60248201527f65637265636f766572206572723200000000000000000000000000000000000060448201526064016104a0565b73ffffffffffffffffffffffffffffffffffffffff821660009081526004602052604090205460ff16151560011461140f576040517f08c379a000000000000000000000000000000000000000000000000000000000815260206004820152601060248201527f696e76616c69642076657269666965720000000000000000000000000000000060448201526064016104a0565b50979650505050505050565b6000611428826000611619565b92915050565b6040805173ffffffffffffffffffffffffffffffffffffffff85811660248301528416604482015260648082018490528251808303909101815260849091019091526020810180517bffffffffffffffffffffffffffffffffffffffffffffffffffffffff167f23b872dd000000000000000000000000000000000000000000000000000000001790526114c39085906116ee565b50505050565b60005473ffffffffffffffffffffffffffffffffffffffff163314610f04576040517f118cdaa70000000000000000000000000000000000000000000000000000000081523360048201526024016104a0565b6000805473ffffffffffffffffffffffffffffffffffffffff8381167fffffffffffffffffffffffff0000000000000000000000000000000000000000831681178455604051919092169283917f8be0079c531659141344cd1fd0a4f28419497f9722a3daafe3b4186f6b6457e09190a35050565b600061159d8251611792565b826040516020016115af929190612676565b604051602081830303815290604052805190602001209050919050565b600080600083516041036116065760208401516040850151606086015160001a6115f888828585611850565b955095509550505050611612565b50508151600091506002905b9250925092565b60008147101561165e576040517fcf479181000000000000000000000000000000000000000000000000000000008152476004820152602481018390526044016104a0565b763d602d80600a3d3981f3363d3d373d3d3d363d730000008360601b60e81c176000526e5af43d82803e903d91602b57fd5bf38360781b176020526037600983f0905073ffffffffffffffffffffffffffffffffffffffff8116611428576040517fb06ebf3d00000000000000000000000000000000000000000000000000000000815260040160405180910390fd5b600080602060008451602086016000885af180611711576040513d6000823e3d81fd5b50506000513d91508115611729578060011415611743565b73ffffffffffffffffffffffffffffffffffffffff84163b155b156114c3576040517f5274afe700000000000000000000000000000000000000000000000000000000815273ffffffffffffffffffffffffffffffffffffffff851660048201526024016104a0565b6060600061179f8361194a565b600101905060008167ffffffffffffffff8111156117bf576117bf611a55565b6040519080825280601f01601f1916602001820160405280156117e9576020820181803683370190505b5090508181016020015b7fffffffffffffffffffffffffffffffffffffffffffffffffffffffffffffffff017f3031323334353637383961626364656600000000000000000000000000000000600a86061a8153600a85049450846117f357509392505050565b600080807f7fffffffffffffffffffffffffffffff5d576e7357a4501ddfe92f46681b20a084111561188b5750600091506003905082611940565b604080516000808252602082018084528a905260ff891692820192909252606081018790526080810186905260019060a0016020604051602081039080840390855afa1580156118df573d6000803e3d6000fd5b50506040517fffffffffffffffffffffffffffffffffffffffffffffffffffffffffffffffe0015191505073ffffffffffffffffffffffffffffffffffffffff811661193657506000925060019150829050611940565b9250600091508190505b9450945094915050565b6000807a184f03e93ff9f4daa797ed6e38ed64bf6a1f0100000000000000008310611993577a184f03e93ff9f4daa797ed6e38ed64bf6a1f010000000000000000830492506040015b6d04ee2d6d415b85acef810000000083106119bf576d04ee2d6d415b85acef8100000000830492506020015b662386f26fc1000083106119dd57662386f26fc10000830492506010015b6305f5e10083106119f5576305f5e100830492506008015b6127108310611a0957612710830492506004015b60648310611a1b576064830492506002015b600a83106114285760010192915050565b803573ffffffffffffffffffffffffffffffffffffffff81168114611a5057600080fd5b919050565b7f4e487b7100000000000000000000000000000000000000000000000000000000600052604160045260246000fd5b604051610260810167ffffffffffffffff81118282101715611aa857611aa8611a55565b60405290565b604051601f82017fffffffffffffffffffffffffffffffffffffffffffffffffffffffffffffffe016810167ffffffffffffffff81118282101715611af557611af5611a55565b604052919050565b803563ffffffff81168114611a5057600080fd5b80356fffffffffffffffffffffffffffffffff81168114611a5057600080fd5b803562ffffff81168114611a5057600080fd5b8035600281900b8114611a5057600080fd5b60006102608284031215611b6957600080fd5b611b71611a84565b9050611b7c82611a2c565b8152611b8a60208301611a2c565b6020820152611b9b60408301611a2c565b6040820152611bac60608301611afd565b6060820152611bbd60808301611afd565b6080820152611bce60a08301611afd565b60a0820152611bdf60c08301611afd565b60c0820152611bf060e08301611afd565b60e0820152611c026101008301611afd565b610100820152611c156101208301611afd565b610120820152611c286101408301611afd565b610140820152611c3b6101608301611b11565b610160820152611c4e6101808301611b11565b610180820152611c616101a08301611b31565b6101a0820152611c746101c08301611b31565b6101c0820152611c876101e08301611b44565b6101e0820152611c9a6102008301611b44565b610200820152611cad6102208301611b44565b610220820152611cc06102408301611afd565b61024082015292915050565b600067ffffffffffffffff821115611ce657611ce6611a55565b50601f017fffffffffffffffffffffffffffffffffffffffffffffffffffffffffffffffe01660200190565b600082601f830112611d2357600080fd5b8135602083016000611d3c611d3784611ccc565b611aae565b9050828152858383011115611d5057600080fd5b82826020830137600092810160200192909252509392505050565b6000806000806000806000610320888a031215611d8757600080fd5b611d9088611a2c565b9650611d9f8960208a01611b56565b955061028088013567ffffffffffffffff811115611dbc57600080fd5b611dc88a828b01611d12565b9550506102a088013567ffffffffffffffff811115611de657600080fd5b611df28a828b01611d12565b9450506102c088013592506102e088013567ffffffffffffffff811115611e1857600080fd5b611e248a828b01611d12565b92505061030088013567ffffffffffffffff811115611e4257600080fd5b611e4e8a828b01611d12565b91505092959891949750929550565b600080600060608486031215611e7257600080fd5b611e7b84611a2c565b9250611e8960208501611b11565b9150611e9760408501611b11565b90509250925092565b600060208284031215611eb257600080fd5b5035919050565b600060208284031215611ecb57600080fd5b611ed482611a2c565b9392505050565b60008060408385031215611eee57600080fd5b611ef783611a2c565b9150602083013567ffffffffffffffff811115611f1357600080fd5b611f1f85828601611d12565b9150509250929050565b60008060408385031215611f3c57600080fd5b611f4583611a2c565b946020939093013593505050565b60005b83811015611f6e578181015183820152602001611f56565b50506000910152565b60008151808452611f8f816020860160208601611f53565b601f017fffffffffffffffffffffffffffffffffffffffffffffffffffffffffffffffe0169290920160200192915050565b602081526000611ed46020830184611f77565b60008060408385031215611fe757600080fd5b82359150602083013567ffffffffffffffff811115611f1357600080fd5b6000806040838503121561201857600080fd5b61202183611a2c565b91506020830135801515811461203657600080fd5b809150509250929050565b805173ffffffffffffffffffffffffffffffffffffffff1682526020810151612082602084018273ffffffffffffffffffffffffffffffffffffffff169052565b5060408101516120aa604084018273ffffffffffffffffffffffffffffffffffffffff169052565b5060608101516120c2606084018263ffffffff169052565b5060808101516120da608084018263ffffffff169052565b5060a08101516120f260a084018263ffffffff169052565b5060c081015161210a60c084018263ffffffff169052565b5060e081015161212260e084018263ffffffff169052565b5061010081015161213c61010084018263ffffffff169052565b5061012081015161215661012084018263ffffffff169052565b5061014081015161217061014084018263ffffffff169052565b506101608101516121966101608401826fffffffffffffffffffffffffffffffff169052565b506101808101516121bc6101808401826fffffffffffffffffffffffffffffffff169052565b506101a08101516121d56101a084018262ffffff169052565b506101c08101516121ee6101c084018262ffffff169052565b506101e08101516122056101e084018260020b9052565b5061020081015161221c61020084018260020b9052565b5061022081015161223361022084018260020b9052565b5061024081015161224d61024084018263ffffffff169052565b505050565b61225c8185612041565b6102a061026082015260006122756102a0830185611f77565b8281036102808401526122888185611f77565b9695505050505050565b6000602082840312156122a457600080fd5b815160ff81168114611ed457600080fd5b6000602082840312156122c757600080fd5b815167ffffffffffffffff8111156122de57600080fd5b8201601f810184136122ef57600080fd5b80516122fd611d3782611ccc565b81815285602083850101111561231257600080fd5b612323826020830160208601611f53565b95945050505050565b6123368187612041565b6102e0610260820152600061234f6102e0830187611f77565b8281036102808401526123628187611f77565b90508281036102a08401526123778186611f77565b91505060ff83166102c08301529695505050505050565b6000602082840312156123a057600080fd5b5051919050565b73ffffffffffffffffffffffffffffffffffffffff8a1681526123cd602082018a612041565b61036061028082015260006123e661036083018a611f77565b8281036102a08401526123f9818a611f77565b905073ffffffffffffffffffffffffffffffffffffffff88166102c0840152866102e0840152856103008401528281036103208401526124398186611f77565b905082810361034084015261244e8185611f77565b9c9b505050505050505050505050565b7f4e487b7100000000000000000000000000000000000000000000000000000000600052603260045260246000fd5b600181811c908216806124a157607f821691505b6020821081036124da577f4e487b7100000000000000000000000000000000000000000000000000000000600052602260045260246000fd5b50919050565b601f82111561224d57806000526020600020601f840160051c810160208510156125075750805b601f840160051c820191505b818110156125275760008155600101612513565b5050505050565b815167ffffffffffffffff81111561254857612548611a55565b61255c81612556845461248d565b846124e0565b6020601f8211600181146125ae57600083156125785750848201515b7fffffffffffffffffffffffffffffffffffffffffffffffffffffffffffffffff600385901b1c1916600184901b178455612527565b6000848152602081207fffffffffffffffffffffffffffffffffffffffffffffffffffffffffffffffe08516915b828110156125fc57878501518255602094850194600190920191016125dc565b508482101561263857868401517fffffffffffffffffffffffffffffffffffffffffffffffffffffffffffffffff600387901b60f8161c191681555b50505050600190811b01905550565b7f4e487b7100000000000000000000000000000000000000000000000000000000600052602160045260246000fd5b7f19457468657265756d205369676e6564204d6573736167653a0a0000000000008152600083516126ae81601a850160208801611f53565b8351908301906126c581601a840160208801611f53565b01601a0194935050505056fea164736f6c634300081c000a",
  "devdoc": {
    "errors": {
      "FailedDeployment()": [
        {
          "details": "The deployment failed."
        }
      ],
      "InsufficientBalance(uint256,uint256)": [
        {
          "details": "The ETH balance of the account is not enough to perform the operation."
        }
      ],
      "OwnableInvalidOwner(address)": [
        {
          "details": "The owner is not a valid owner account. (eg. `address(0)`)"
        }
      ],
      "OwnableUnauthorizedAccount(address)": [
        {
          "details": "The caller account is not authorized to perform an operation."
        }
      ],
      "SafeERC20FailedOperation(address)": [
        {
          "details": "An operation with an ERC-20 token failed."
        }
      ]
    },
    "kind": "dev",
    "methods": {
      "owner()": {
        "details": "Returns the address of the current owner."
      },
      "renounceOwnership()": {
        "details": "Leaves the contract without owner. It will not be possible to call `onlyOwner` functions. Can only be called by the current owner. NOTE: Renouncing ownership will leave the contract without an owner, thereby disabling any functionality that is only available to the owner."
      },
      "transferOwnership(address)": {
        "details": "Transfers ownership of the contract to a new account (`newOwner`). Can only be called by the current owner."
      }
    },
    "version": 1
  },
  "userdoc": {
    "kind": "user",
    "methods": {},
    "version": 1
  },
  "storageLayout": {
    "storage": [
      {
        "astId": 8,
        "contract": "contracts/UbeStarterFactory.sol:UbestarterFactory",
        "label": "_owner",
        "offset": 0,
        "slot": "0",
        "type": "t_address"
      },
      {
        "astId": 5582,
        "contract": "contracts/UbeStarterFactory.sol:UbestarterFactory",
        "label": "quoteTokens",
        "offset": 0,
        "slot": "1",
        "type": "t_mapping(t_address,t_struct(QuoteTokenInfo)5577_storage)"
      },
      {
        "astId": 5586,
        "contract": "contracts/UbeStarterFactory.sol:UbestarterFactory",
        "label": "disclaimerMessages",
        "offset": 0,
        "slot": "2",
        "type": "t_mapping(t_bytes32,t_string_storage)"
      },
      {
        "astId": 5590,
        "contract": "contracts/UbeStarterFactory.sol:UbestarterFactory",
        "label": "implementations",
        "offset": 0,
        "slot": "3",
        "type": "t_mapping(t_address,t_uint256)"
      },
      {
        "astId": 5594,
        "contract": "contracts/UbeStarterFactory.sol:UbestarterFactory",
        "label": "verifiers",
        "offset": 0,
        "slot": "4",
        "type": "t_mapping(t_address,t_bool)"
      },
      {
        "astId": 5602,
        "contract": "contracts/UbeStarterFactory.sol:UbestarterFactory",
        "label": "launchpads",
        "offset": 0,
        "slot": "5",
        "type": "t_array(t_address)dyn_storage"
      },
      {
        "astId": 5607,
        "contract": "contracts/UbeStarterFactory.sol:UbestarterFactory",
        "label": "deploymentInfos",
        "offset": 0,
        "slot": "6",
        "type": "t_mapping(t_address,t_struct(LaunchpadDeployment)5572_storage)"
      }
    ],
    "types": {
      "t_address": {
        "encoding": "inplace",
        "label": "address",
        "numberOfBytes": "20"
      },
      "t_array(t_address)dyn_storage": {
        "base": "t_address",
        "encoding": "dynamic_array",
        "label": "address[]",
        "numberOfBytes": "32"
      },
      "t_bool": {
        "encoding": "inplace",
        "label": "bool",
        "numberOfBytes": "1"
      },
      "t_bytes32": {
        "encoding": "inplace",
        "label": "bytes32",
        "numberOfBytes": "32"
      },
      "t_mapping(t_address,t_bool)": {
        "encoding": "mapping",
        "key": "t_address",
        "label": "mapping(address => bool)",
        "numberOfBytes": "32",
        "value": "t_bool"
      },
      "t_mapping(t_address,t_struct(LaunchpadDeployment)5572_storage)": {
        "encoding": "mapping",
        "key": "t_address",
        "label": "mapping(address => struct UbestarterFactory.LaunchpadDeployment)",
        "numberOfBytes": "32",
        "value": "t_struct(LaunchpadDeployment)5572_storage"
      },
      "t_mapping(t_address,t_struct(QuoteTokenInfo)5577_storage)": {
        "encoding": "mapping",
        "key": "t_address",
        "label": "mapping(address => struct UbestarterFactory.QuoteTokenInfo)",
        "numberOfBytes": "32",
        "value": "t_struct(QuoteTokenInfo)5577_storage"
      },
      "t_mapping(t_address,t_uint256)": {
        "encoding": "mapping",
        "key": "t_address",
        "label": "mapping(address => uint256)",
        "numberOfBytes": "32",
        "value": "t_uint256"
      },
      "t_mapping(t_bytes32,t_string_storage)": {
        "encoding": "mapping",
        "key": "t_bytes32",
        "label": "mapping(bytes32 => string)",
        "numberOfBytes": "32",
        "value": "t_string_storage"
      },
      "t_string_storage": {
        "encoding": "bytes",
        "label": "string",
        "numberOfBytes": "32"
      },
      "t_struct(LaunchpadDeployment)5572_storage": {
        "encoding": "inplace",
        "label": "struct UbestarterFactory.LaunchpadDeployment",
        "members": [
          {
            "astId": 5567,
            "contract": "contracts/UbeStarterFactory.sol:UbestarterFactory",
            "label": "creator",
            "offset": 0,
            "slot": "0",
            "type": "t_address"
          },
          {
            "astId": 5569,
            "contract": "contracts/UbeStarterFactory.sol:UbestarterFactory",
            "label": "timestamp",
            "offset": 20,
            "slot": "0",
            "type": "t_uint32"
          },
          {
            "astId": 5571,
            "contract": "contracts/UbeStarterFactory.sol:UbestarterFactory",
            "label": "blocknumber",
            "offset": 24,
            "slot": "0",
            "type": "t_uint32"
          }
        ],
        "numberOfBytes": "32"
      },
      "t_struct(QuoteTokenInfo)5577_storage": {
        "encoding": "inplace",
        "label": "struct UbestarterFactory.QuoteTokenInfo",
        "members": [
          {
            "astId": 5574,
            "contract": "contracts/UbeStarterFactory.sol:UbestarterFactory",
            "label": "minSoftCap",
            "offset": 0,
            "slot": "0",
            "type": "t_uint128"
          },
          {
            "astId": 5576,
            "contract": "contracts/UbeStarterFactory.sol:UbestarterFactory",
            "label": "maxSoftCap",
            "offset": 16,
            "slot": "0",
            "type": "t_uint128"
          }
        ],
        "numberOfBytes": "32"
      },
      "t_uint128": {
        "encoding": "inplace",
        "label": "uint128",
        "numberOfBytes": "16"
      },
      "t_uint256": {
        "encoding": "inplace",
        "label": "uint256",
        "numberOfBytes": "32"
      },
      "t_uint32": {
        "encoding": "inplace",
        "label": "uint32",
        "numberOfBytes": "4"
      }
    }
  }
}